:100000000C9450050C946D050C946D050C946D05C5
:100010000C946D050C946D050C946D050C946D0598
:100020000C946D050C946D050C94A2250C9474260B
:100030000C940C200C946D050C946D050C946D05BE
:100040000C946D050C946D050C946D050C946D0568
:100050000C946D050C9465200C946D050C946D0545
:100060000C946D050C946D050C946D050C946D0548
:100070000C946D050C946D050C946D050C946D0538
:100080000C946D050C946D050C946D050C946D0528
:100090000C946D050C946D050C946D050C946D0518
:1000A0000C946D050C946D050C946D0577067A061D
:1000B0007D068006830686068906F514F514271545
:1000C000271570150417A016041792152D163F1644
:1000D0003F16AC16CF16B416B716C216BC16C71606
:1000E000BF17BF17D117D117C817D117D117D117FD
:1000F000BF17BF17CD17D117D117CD17E126082786
:10010000002808270028542777270028CE27DD2736
:100110006C656674207369646520617474616368DA
:1001200065640A006C6566742073696465206E6F8F
:100130007420726573706F6E64696E670A00747202
:1001400079696E6720746F207265736574206D63C2
:100150007032333031380A00000D010D020D030DED
:10016000040D050D000C010C020C030C040C050C15
:10017000000B010B020B030B040B050B000A010A19
:10018000020A030A040A050A00090109020903090F
:100190000409050900080108020803080408050805
:1001A0000007010702070307040705070006010609
:1001B00002060306040605060005010502050305FF
:1001C00004050505000401040204030404040504F5
:1001D00000030103020303030403050300020102F9
:1001E00002020302040205020001010102010301EF
:1001F00004010501000001000200030004000500E5
:1002000021022B0029000151E000000024023300EC
:10021000040034000754635D2F0036001200140000
:10022000E20005012F02370008000D0050002C00ED
:100230003002130018000E004F00010026021C00BF
:100240000C001B00000005532E0031000000E300ED
:100250000000065320021F020000350800000100C4
:1002600025020900070005000000010027020A001E
:100270000B001000520002522E02060017001A0056
:1002800051002800300015001100190001002B005A
:100290001E020F0016001D000100625D2A003800DA
:1002A0002D00E5000100000035022B0201000100D5
:1002B00001000000240033020402340201000100A6
:1002C000220036021202140201000100200037024F
:1002D00008020D02010001001E00130218020E02A6
:1002E0000100010026001C020C021B02000001009C
:1002F000220231020000010000000100350023024B
:1003000000000100000001002700090207020502A9
:10031000000001001F000A020B0210020100010090
:100320002100060217021A0201002802230015020A
:100330001102190201002B0225000F0216021D02F4
:1003400001000100010038022D020100010000003F
:100350002E002B002900E100E00000001E00140028
:1003600004001D613400635D1F001A0016001B00AD
:10037000E2002A00200008000700060050002C00C0
:1003800021001500090019004F0044002200170049
:100390000A000500000065644C0001000000E30055
:1003A0000000E3004F000100000000070000E20031
:1003B00023001C000B00110000002961240018001C
:1003C0000D0010005200005225000C000E003600F7
:1003D00051002800260012000F0037002F002B00CC
:1003E00027001300330038713000625D2A003100AD
:1003F0000100E50001000000010001000100010012
:1004000001000000010001000100010001000100E5
:1004100001000100010001000100010001000100D4
:1004200001000100010001000100010001000100C4
:1004300001000100010001000100010000000100B5
:1004400001000100000001000000010001000100A6
:100450000000010000000100010001000100010096
:100460000000010001000100010001000100010085
:100470000100010001000100010001000100010074
:100480000100010001000100010001000100010064
:100490000100010001000100010001000100000055
:1004A0000100010001000100010000000100010045
:1004B0000100010001000100010001000100010034
:1004C0000100010001000100010001000100010024
:1004D0000100010001000100010001000100010014
:1004E0000100010000000100010001000000010006
:1004F00000000100010001000000010000000100F7
:1005000001000100010001000000010001000100E4
:1005100001000100010001000100010001000100D3
:1005200001000100010001000100010001000100C3
:1005300001000100010001000100010001000100B3
:1005400001000100010000000100010001000100A4
:100550000100000001000100010001000100010094
:100560000100010001000100010001000100010083
:100570000100010001000100010001000100010073
:100580000100010001000100010001000000010064
:100590000100010000000100000001000100010055
:1005A0000000010000000100010001000100010045
:1005B0000000010001000100010001000100010034
:1005C0000100010001000100010001000100010023
:1005D0000100010001000100010001000100010013
:1005E0000100010001000100010001000100000004
:1005F00001000100010001000100000001000100F4
:1006000001000100010001000100010001000100E2
:1006100001000100010001000100010001000100D2
:1006200001000100010001000100010001000100C2
:1006300001000100000001000100010000000100B4
:100640000000010001000100000001000000050C95
:100650000100010001000100000005080100010087
:100660000100010001000100010001000100010082
:100670000100010001000100010001002F08080A2B
:10068000010001000100010030080100010001002B
:100690000100010001000000010001000100010053
:1006A0000100000040000100010001000100010004
:1006B0003E00010001000100010001003C000100BA
:1006C00001000100010001003A00010001000100E9
:1006D00001000100420001000100010000000100D2
:1006E0000100010000000100000001000100010004
:1006F00000000100000001000100010001000100F4
:10070000000001003B0001000100010001000100A8
:100710003D00010001000100010001003F00010057
:10072000010001002F08080A41000100010001003A
:10073000300801000100010001000100010000007B
:1007400044454255473A2064697361626C65642E82
:100750000A0044454255473A20656E61626C656403
:100760002E0A0000000000000000002A2B280000D4
:100770000000000000000000000000000000290050
:100780000000002C1E3420212224342627252E365A
:100790002D3738271E1F20212223242526333336C8
:1007A0002E37381F0405060708090A0B0C0D0E0F1B
:1007B000101112131415161718191A1B1C1D2F319E
:1007C00030232D350405060708090A0B0C0D0E0F02
:1007D000101112131415161718191A1B1C1D2F317E
:1007E00030354C0000000000000000000000000058
:1007F00000000000000000000000000000000000F9
:10080000000000000000007E0F00D4FFFFFFC700C3
:100810000000780A0025303862003A200025303286
:1008200058000A722F632030313233343536370A9C
:1008300000556E69636F646520696E707574206D14
:100840006F64652073657420746F3A2025750A0003
:10085000556E69636F646520696E707574206D6F85
:10086000646520696E697420746F3A2025750A00EA
:100870000A002530325820006B6579626F6172641E
:100880005F7265706F72743A20000A00253032582A
:10089000006B6579626F6172645F7365745F6C652C
:1008A000643A20004F6E6573686F743A2061637418
:1008B0006976653A2025640A0064656C5F6B65792A
:1008C0005F6269743A2063616E27742064656C3AD4
:1008D00020253032580A006164645F6B65795F627D
:1008E00069743A2063616E2774206164643A20253C
:1008F0003032580A005B735D004B6579626F61723C
:10090000642073746172742E0A005B575D005B5340
:100910005D005B525D005B445D005B435D00160360
:100920004500720067006F0044006F0078002000EF
:1009300045005A00000028035A00530041002000DF
:1009400054006500630068006E006F006C006F006B
:100950006700790020004C00610062007300000015
:100960000403090409025B00030100A0FA09040062
:1009700000010301010009211101000122400007CB
:1009800005810308000A09040100010300000009B1
:100990002111010001226D000705820320000A09D0
:1009A00004020002030000000921110100012222BB
:1009B000000705830320000107050303200001123F
:1009C0000110010000000897327449010001020083
:1009D000010631FF0974A1010975150026FF009574
:1009E00020750881020976150026FF0095207508FC
:1009F0009102C005010980A101850319012AB700F0
:100A0000150126B700950175108100C0050C09017C
:100A1000A101850419012AA002150126A002950151
:100A200075108100C005010906A10185050507199A
:100A3000E029E715002501950875018102050719D0
:100A40000029EF1500250195F075018102050819AF
:100A5000012905950575019102950175039101C064
:100A600005010906A101050719E029E7150025017F
:100A70009508750181029501750881010507190026
:100A800029FF150026FF0095067508810005081945
:100A9000012905950575019102950175039101C024
:100AA00011241FBECFEFDAE0DEBFCDBF11E0A0E022
:100AB000B1E0EEE1F1E502C005900D92A038B1077A
:100AC000D9F722E0A0E8B1E001C01D92A93BB2072E
:100AD000E1F70E94D7220C948D280C940000FF931C
:100AE000EF93E0918001F0918101309709F0099531
:100AF000EF91FF910895FC018591803011F0EFDFB7
:100B0000FBCF0895FF27E0E230E247FF0CC041959C
:100B100097FF09C0EDE26095709580959095611DF5
:100B2000711D811D911D27FF02C0219530E350E208
:100B3000AA27660F771F881F991FAA1FA41710F0F6
:100B4000A41B63955A95A9F7AA3008F0A95FA05D88
:100B5000AF93F395611571058105910541F7ED326C
:100B600011F4EF93F395F21718F43F93F395FBCF3D
:100B70008F91B5DFFA95E1F70895E991F9918591A3
:100B8000803021F0853219F0AADFF9CF089520E0F6
:100B9000E89455915532C1F3503311F4689455914E
:100BA0005A3348F4505390F3220F022E220F220F93
:100BB000200D250FF4CF0EF421958991999153368C
:100BC00019F3533729F1533559F1BC018827992777
:100BD000E8945C3621F48991999168945591543642
:100BE00039F446EF7EF077FF0DC08FEF9FEF0AC01C
:100BF00055374AE039F0583540E121F0523642E0AD
:100C000009F00895FF93EF937DDFEF91FF91B7CF48
:100C1000FF93EF93FC0181918030B9F360DFFBCF4C
:100C2000FF93EF9368DFF1CFDF93CF93CDB7DEB7BC
:100C30002596A3DFCF91DF9108958098889A8198B7
:100C4000899A84988C9A85988D9A86988E9A879896
:100C50008F9A0895209828982198299822982A9860
:100C600023982B9852985A9853985B983E98469898
:100C70000895CF93E82F873080F5809100019091FF
:100C80000101892B09F047C0CE2F64E670E080E4B3
:100C90000E949A109093010180930001892BD1F456
:100CA00064E670E082E10E94F1109093010180936C
:100CB0000001892B79F481E090E001C0880FCA958A
:100CC000EAF764E670E080950E94F11090930101CC
:100CD00080930001CF910C94461190E0FC0137976E
:100CE000E730F105C0F4EA5AFF4F0C943F28209AF0
:100CF000289811C0219A29980EC0229A2A980BC0D0
:100D0000239A2B9808C0529A5A9805C0539A5B9818
:100D100002C03E9A4698CF910895CF93873040F510
:100D20008091000190910101892B59F564E670E0F2
:100D300081E40E949A109093010180930001892B15
:100D400011F0C0E011C084E690E00E94211197FFED
:100D500005C09093010180930001F3CFC82FC09587
:100D600010920101109200010E9446118C2F0AC0BE
:100D70009FB18FB1807F869586959370892B8095E2
:100D800001C080E0CF9108950E94CF0790E090933A
:100D90000101809300010E942A060C941D06EF9227
:100DA000FF920F931F93CF93DF9380910001909157
:100DB0000101892BF9F0809182018F5F809382017C
:100DC000811118C08EE391E00E947B050E94CF073D
:100DD00090E09093010180930001892B29F084E237
:100DE00091E00E947B0506C080E191E00E947B05B6
:100DF0000E94410706E812E0C0E0F12C87E0E82EEF
:100E0000EC0E8C2F0E9439068E2D0E9439068C2FF5
:100E10000E948D06F8019081891719F08083D1E036
:100E200001C0D0E08E2D0E948D06F80197818917B0
:100E300019F0878381E001C080E0D82BFD2A0E9451
:100E40002A06CF5F0F5F1F4FC730C1F68F2DDF918E
:100E5000CF911F910F91FF90EF9008950E94CF07BF
:100E600090E090930101809300010E942A060E9465
:100E70001D06E4E9F2E0119282E0E23AF807D9F7C0
:100E8000089556985E9825982D9826982E9827981C
:100E90002F988FEF90E09093890080938800909333
:100EA0008B0080938A0090938D0080938C00259A0C
:100EB0002D9A2FEF80E792E0215080409040E1F79B
:100EC00000C00000269A2E9A2FEF80E792E0215072
:100ED00080409040E1F700C00000279A2F9A2FEF42
:100EE00080E792E0215080409040E1F700C0000090
:100EF00025982D982FEF80E792E021508040904078
:100F0000E1F700C0000026982E982FEF80E792E0CE
:100F1000215080409040E1F700C0000027982F98B2
:100F200056985E9825982D9826982E9827982F9851
:100F3000089589EA8093800089E080938100249855
:100F40002C983F988AB18F7C8AB96E98479A8BB15A
:100F500080638BB9769A0E945E1E609380027093C4
:100F60008102809382029093830267708FEF689F63
:100F7000B0011124759567957595679577277093DE
:100F800089006093880070938B0060938A0070934F
:100F90008D0060938C000E9441070C94A10880E2B0
:100FA00090E0909301018093000180918301811171
:100FB0000EC00E94941081E0809383012FEF83ED97
:100FC00090E3215080409040E1F700C0000064E6CB
:100FD00070E080E40E949A109093010180930001D8
:100FE000892B09F04EC064E670E080E00E94F110A9
:100FF0009093010180930001892B09F042C064E6BF
:1010000070E080E00E94F110909301018093000154
:10101000892BB9F564E670E08FE30E94F11090939C
:10102000010180930001892B61F50E94461164E65D
:1010300070E080E40E949A10909301018093000177
:10104000892BF9F464E670E08CE00E94F110909333
:10105000010180930001892BA1F464E670E080E037
:101060000E94F1109093010180930001892B49F4B3
:1010700064E670E08FE30E94F11090930101809389
:1010800000010E9446118091000108951092800293
:1010900010928102109282021092830284E0806199
:1010A000809380026091800270918102809182021F
:1010B000909183020E94621E0C946E1ECF93FB01DE
:1010C00082362DE5920769F083362DE59207A1F06F
:1010D00080369D4591F5C281CC2381F10E94D21EBC
:1010E00009C0C281CC2351F168E170E080E090E05A
:1010F0000E942E1CC0E022C0C281CC23D9F0809176
:10110000860181110DC081E08093860184E00E94F8
:10111000831B882311F083EE01C082EE0E948713A7
:101120000E943E2090938501809384018BE20E946F
:10113000871304C08BE20E942914C1E08C2FCF9149
:10114000089584E00C94A31BCF92DF92EF92FF925C
:101150006B017C0145E00E946E1B811107C046E0D7
:10116000C701B6010E946E1B882319F0279A2F9A97
:1011700002C027982F9844E0C701B6010E946E1B59
:10118000882319F0269A2E9A09C043E0C701B601B8
:101190000E946E1B882311F026982E98C701B60175
:1011A000FF90EF90DF90CF900895CF92DF92EF9273
:1011B000FF926B017C0140E00E946E1B882319F0B6
:1011C00025982D9809C042E0C701B6010E946E1B08
:1011D000882311F0259A2D9AC701B601FF90EF9050
:1011E000DF90CF900895809186018823A9F08091A7
:1011F0008401909185010E9456208935924060F0CB
:1012000084E00E94831B882311F083EE01C082EEEC
:101210000E9429141092860108959C013A95211587
:101220003F4138F5DC01AA27B270AC014427547065
:101230009C012227387094FF0FC090FF02C080E10C
:1012400001C080E0AB2B09F08062452B09F080647F
:10125000232B69F080680BC0892F8170AB2B09F0BC
:101260008260452B09F08460232B09F08860FB0124
:1012700009940895CF93DF93EC01805E910908975C
:1012800010F0209719F468EA74E102C069E877E188
:10129000CE010E940D098C2FDF91CF910C94871302
:1012A000CF93DF93EC010E942914CE01805E910957
:1012B000089710F0209719F46FEA74E102C060E912
:1012C00077E1CE01DF91CF910C940D09CF93DF939D
:1012D000EC010E943A09CE01DF91CF910C945009A4
:1012E00081E008950C945E0808950C9474091F938E
:1012F000CF93DF9300D000D01F92CDB7DEB74983E4
:101300005A836B833091B90189819A81311114C05C
:10131000662359F0222349F00E949A1C182F682F47
:1013200089819A810E94411C03C00E946D1C182F64
:1013300069817A81812F04C00E949A1C69817A8117
:101340000F900F900F900F900F90DF91CF911F9102
:101350000C94E00AFC01262F408151816281738147
:1013600084810C947709CF93DF93EC0160E00E94B5
:10137000AA09BE01DF91CF910C9475090E94C40C9B
:101380000E94A60D0C9499070C94340D08950E94A8
:10139000AD170E94C6092FEF84E39CE021508040E6
:1013A0009040E1F700C000000C948B200F931F9336
:1013B000CF93DF938C0161E00E94AA09EC01B80190
:1013C0000E947209882309F462C0B801CE010E940C
:1013D000570E882309F45BC0B801CE010E94E60EC7
:1013E000882309F454C0B801CE010E94380F882325
:1013F00009F44DC0B801CE010E946310882309F49E
:1014000046C0F80182818823D9F1CF3D8CE5D80709
:1014100079F140F4C115FCE5DF0791F0C130DC45FE
:1014200091F02EC0CC35EDE5DE0741F1CD35FDE57F
:10143000DF0709F1CB35DD4519F50E94721D20C08B
:101440000E94C70924C080915902C82FC095C1705D
:10145000C0FB80F980935902CC2329F082E597E004
:101460000E947B0514C080E497E00E947B0510C0B9
:101470000E94D21E0CC00E94691D02C00E94751DF0
:10148000C801DF91CF911F910F910C947009C0E0BA
:101490008C2FDF91CF911F910F910895DF92EF92E2
:1014A000FF920F931F93CF93DF93E82FF0E0ED5956
:1014B000F84FD490282F26952695269530E0F901EF
:1014C000ED5FF74F0491877010E0082E02C015956C
:1014D00007950A94E2F701701127F901ED50F84FD2
:1014E000E490F12C082E02C0F594E7940A94E2F7F8
:1014F00091E0E922FF24F901ED51F84FC491D0E0C9
:1015000002C0D595C7958A95E2F7C170DD27011510
:10151000110519F081EE0E948713E114F10419F00E
:1015200086EE0E9487138D2D0E949F14EF2819F0DC
:1015300086EE0E942914012B19F081EE0E942914D5
:10154000CD2B51F08CE2DF91CF911F910F91FF9045
:10155000EF90DF900C949F14DF91CF911F910F912A
:10156000FF90EF90DF900895982F9F709A509630DB
:1015700010F0805D01C0895A0C944E0A8295982F14
:10158000937344E0949F900111248C7C86958695FA
:10159000282B822F8575880F2A7A2695822B08950D
:1015A00008950C94D00A81E008950C94D30ACF9347
:1015B000C82F0E94D10A8C2F0E94D50ACF9108957E
:1015C00024E5829FC0011124FC0126E0729FE00DFA
:1015D000F11D1124E60FF11DEE0FFF1FE050FE4F2D
:1015E000859194910895CF93DF930E94E00A0E9421
:1015F000EC0BEC0181159245F0F5C11581E5D8079A
:1016000008F0ACC0C83ED10528F5C03ED10508F0B1
:10161000DFC0C83AD10578F4C53AD10508F077C0E3
:10162000C130D10509F4D4C008F4D0C0C430D1050C
:1016300008F0CEC0CBC0CF3BD10508F0C7C0C85A18
:10164000D0E0CC0FDD1FC15FDE4F0990D881C02DE7
:10165000D464BEC0C11590E5D90708F063C0C115B8
:1016600020E4D20708F05BC0CE019A9581159F4116
:1016700008F4AEC0ABC0C11586E5D80718F5C11592
:1016800095E5D90708F083C0C11524E5D20708F015
:1016900079C09E01237033278C2F86958695C115BE
:1016A000D34508F060C0C1E0D0E002C0CC0FDD1F20
:1016B0002A95E2F720E2829FC0011124C82BD92B82
:1016C000DC6886C0C11529E5D20768F4C11588E534
:1016D000D80708F066C0C11597E5D90708F076C0AD
:1016E000DD27D06675C0C1152AE5D20708F45EC0B3
:1016F000CE0190568115904208F068C08D2F8F71F1
:101700000E94800CDD27D0628F71D82B61C0C55A32
:10171000D0E0C35CDE4FC881D0E0D06459C0DF7038
:10172000D06A56C0CE0174E0969587957A95E1F718
:1017300083709C2F937021E030E002C0220F331F92
:101740009A95E2F73C68382BCF70C695C69580E233
:10175000C89FE0011124C22BD32B3AC0DC2FCC2729
:10176000C16FD06A35C0C1E0D0E002C0CC0FDD1F30
:101770002A95E2F720E2829FC0011124C82BD92BC1
:10178000DA6826C0DC2FCC27C46FD06A21C08C2F2A
:101790000E94800C8F71C82FD0E0DC2FCC27D06244
:1017A00017C0DC2FCC27C06FD06A12C08C2F8F706F
:1017B0000E94800C94E0D695C7959A95E1F7CF707A
:1017C000D0E0DC2FCC27D069C82B02C0C0E0D0E02D
:1017D000CE01DF91CF9108958238910569F1B0F47F
:1017E0008133910509F46DC048F48932910509F4FB
:1017F00063C08A32910509F469C008958533910563
:1018000009F455C089339105B9F00895833E9105D7
:1018100069F138F4803E9105B1F0823E910509F1FD
:101820000895863E9105A9F1873E9105B9F1843E60
:10183000910509F064C023C02091840220FD4FC0AF
:1018400021FD4DC008958091840280FD44C08091A7
:10185000850280FF44C08091840284FD42C083EEF3
:101860004DC08091840282FF38C0F5CF8091840200
:1018700082FD33C08091850280FD31C0ECCF809124
:10188000850281FF32C08091840284FD2AC087EEE8
:1018900035C08091840283FF26C0F5CF80918402F9
:1018A00083FD21C08091850281FD1FC0ECCF809116
:1018B000840285FD1CC01DC08091840285FD19C075
:1018C00016C08091840286FD16C017C080918402E4
:1018D00086FD13C010C089E311C082EE0FC080EEF8
:1018E0000DC080E00BC086EE09C084EE07C089E21F
:1018F00005C085E303C08AE201C081E390E008955A
:101900009091840292FF0DC0282F2871283019F47D
:10191000877F846006C0282F2471243011F48B7FC8
:10192000886093FF0DC0282F2871283119F4877E15
:10193000846106C0282F2471243111F48B7E8861C4
:101940002091850220FF0DC0382F3871383019F4EE
:10195000877F816006C0382F3171313011F48E7F5E
:10196000886021FF0DC0282F2871283119F4877E47
:10197000816106C0282F2171213111F48E7E88618A
:1019800094FD877E089508950E942D1E811102C046
:101990000E94D21E0E94381E809359020E94401E4F
:1019A00090938502809384020E94C30C0E943C1E87
:1019B000682F70E080E090E00E94231B60912B0272
:1019C00070912C0280912D0290912E020C945B1B41
:1019D000E82FF0E0EC56FD4F80810895CF92DF9222
:1019E000EF92FF920F931F93CF93DF9382E298E0E1
:1019F0000E947B0584E9E82E82E0F82EC0E0D0E06A
:101A00009DE1C92E98E0D92E05E118E0DF93CF9330
:101A1000DF92CF920E9414068AE198E00E947B0533
:101A2000F70181917F010E94BE0A1F928F931F933D
:101A30000F930E94140683E198E00E947B05219693
:101A40008DB79EB708960FB6F8949EBF0FBE8DBF98
:101A5000CE30D105D9F6DF91CF911F910F91FF9034
:101A6000EF90DF90CF9008950C94F3080E94C40685
:101A7000E6E8F2E0A4E9B2E011921D9282E0E439D6
:101A8000F807D1F78EE00E945A0D0C94BE09CF934F
:101A900086E892E00E94CF06C82F282F4EE064E926
:101AA00072E086E892E00E945B0D0E94C4098C2FD0
:101AB000CF9108950895FF920F931F93CF93DF93D3
:101AC0008C01F62ED72FC42F222349F081E080937A
:101AD00089010E943E209093880180938701809124
:101AE00089018823C1F080918701909188010E942B
:101AF0005620409780F0EF2DFD2FD8014C2F50E05D
:101B0000CD01801B910B841795071CF48D91819357
:101B1000F7CF10928901DF91CF911F910F91FF9024
:101B20000895CF93DF9397FF0DC0FB0122812223FD
:101B300049F0EC010E94E50DCE019F770E943C0E1A
:101B40000E941E0E81E0DF91CF9108958CE090E01D
:101B50000E94452890E0A0E0B0E08093A20290931C
:101B6000A302A093A402B093A5028091590280FF22
:101B70000EC08091A2021F928F9380E598E09F9300
:101B80008F930E9414060F900F900F900F9008955E
:101B90006091A2028CE090E00C9459288093A202FC
:101BA0000E94C80D8091590280FF0EC08091A20250
:101BB0001F928F9381E398E09F938F930E94140666
:101BC0000F900F900F900F9008950E945B118695D3
:101BD00081708093A7029091A202913029F488230A
:101BE00019F089E30E949F140E94781D8093A60239
:101BF0000E948B1D8091A202813071F048F08230EA
:101C000081F08430A1F486EE0E949F1488E10DC01B
:101C100082EE0E9487130BC088E193E00E94660960
:101C200006C082EE0E94871387E50E949F148FE30F
:101C30009CE90197F1F700C0000008958091A2028D
:101C4000813039F078F0823069F0843089F488E2AC
:101C50000DC08CE20E949F148091A702882341F05E
:101C600089E304C082EE0E94291402C00E949F14DE
:101C70008091A6020C94881D0F931F93CF93DF933E
:101C80008C01CCE0D0E0C8010C2E02C0969587955F
:101C90000A94E2F78F700E94B40A2497CC3F8FEF2A
:101CA000D80789F7DF91CF911F910F9108950F9376
:101CB0001F93CF93DF93EC018B01FB01828188237B
:101CC00051F00E94781DCE01825E9C4585309105C1
:101CD00010F40E94CE0DB801CE01DF91CF911F917B
:101CE0000F910C94910D0F931F93CF93DF93C42FFB
:101CF000D22FFC0182818823C9F040938C010E947D
:101D00003E2090938B0180938A0180E28C0F883073
:101D100008F057C0C77081E001C0880FCA95EAF784
:101D2000DF91CF911F910F910C94A81480918C0199
:101D3000481330C080918A0190918B010E945620F7
:101D4000883C910538F510E21D0FCD17B9F080E2FF
:101D50008C0F883040F4C77081E001C0880FCA95AD
:101D6000EAF70E94AF14183028F581E09D2F977094
:101D700001C0880F9A95EAF70E94A814802F0E944C
:101D80009F141830F0F4D77081E001C0880FDA9505
:101D9000EAF70AC080E28C0F883098F4C77081E0BF
:101DA00001C0880FCA95EAF7DF91CF911F910F917B
:101DB0000C94AF14802FDF91CF911F910F910C9451
:101DC0009F14DF91CF911F910F9108950F939C0164
:101DD000CB01243F4CE5340731F188F4293DFCE583
:101DE0003F07D9F02A3D4CE5340779F1283D3C45C1
:101DF000A9F506E221EE41EE68ED7CE52BC0263F19
:101E0000FCE53F07E1F0A8F0273F3C4539F507E244
:101E100025EE46EE67EF7CE51DC007E225EE45EEB8
:101E200069ED7CE517C006E221EE40EE64EF7CE54B
:101E300011C007E225EE44EE65EF7CE50BC006E23B
:101E400021EE42EE66EF7CE505C008E221E045EEBA
:101E50006AED7CE50E94730E80E008C0FC0182817F
:101E6000882319F010928C0101C081E00F91089530
:101E7000CF93DF93EC01FB018281882309F41FC11A
:101E8000C230FCE5DF0708F41BC1C6319CE5D90769
:101E900038F09E012B5F3C452930310508F010C118
:101EA0000E94401E9093850280938402C031ECE52D
:101EB000DE0709F4C3C008F041C0C8308CE5D8077C
:101EC00009F49AC0F0F4C430ECE5DE0709F487C0E9
:101ED00068F4C2308CE5D80709F477C0C330DC451C
:101EE00009F0E3C080918402826076C0C630ECE5E0
:101EF000DE0709F46EC008F07BC080918402886020
:101F00006BC0CC308CE5D80709F485C068F4CA30C2
:101F1000ECE5DE0709F474C008F079C00E94AD1743
:101F200080918402806858C0CE308CE5D80709F4CF
:101F300076C008F07FC0809184028BC0CC3FECE576
:101F4000DE0709F44FC018F5C3318CE5D80709F452
:101F50007DC078F4C131ECE5DE0709F473C0C2310D
:101F6000DC4509F0A2C00E94AD17809184028F77F2
:101F700033C0C5318CE5D80709F472C008F486C0B7
:101F8000CB3FDC4509F091C0809185023EC0C11570
:101F9000FDE5DF0709F45FC058F4CE3F9CE5D907A3
:101FA00009F444C008F43FC08091850282602DC0CE
:101FB000C230FDE5DF0709F475C008F45DC0C33029
:101FC000DD4509F072C080E06EC0809184028160BE
:101FD00003C08091840280618093840266C08091F6
:101FE000840211C0809185028260809385025DC069
:101FF000809184028062F0CF809184028064ECCF73
:102000008091840288608460E7CF8160EECF809108
:1020100084028E7FE1CF809184028D7FDDCF80911D
:102020008402877FD9CF8091850218C08091850274
:102030008D7FDBCF809184028F7ECECF8091840212
:102040008F7DCACF809184028F7BC6CF809184021E
:10205000877F8B7FC1CF809185028D7F8E7FC5CF9B
:102060008091840282FB222720F991E0922790FB45
:1020700082F990FB83F9B0CF80918502982F9095DB
:1020800091708E7F892B90FB81F9AFCF0E94AD17A5
:102090008091840287FB222720F991E0922790FB10
:1020A00087F99ACF81E00E94D41E8091840290919A
:1020B00085020E94511E0E94AD1780E001C081E0A0
:1020C000DF91CF910895CF93DF9386319C4541F501
:1020D000EB010E94781D982F8A8120910201309196
:1020E0000301882379F09A7A81E009F480E08093F3
:1020F0008D01911102C069E201C065E3C9010E942E
:10210000911F0AC080918D01811102C069E201C056
:1021100065E3C9010E949C1F0E94C01D80E001C0B0
:1021200081E0DF91CF9108951092B9008CE0809307
:10213000B8000895EF92FF920F931F93CF93DF9310
:10214000182FEB011092BC0084EA8093BC000E941F
:102150003E207C018091BC0087FD0EC0CF3F8FEFF9
:10216000D807C1F30E943E208E199F098C179D0746
:1021700088F38EEF9FEF2EC08091B900887F883062
:1021800041F08091B900887F803119F08FEF9FEF87
:1021900021C01093BB0084E88093BC000E943E20C5
:1021A0008C018091BC0087FD0CC0CF3F8FEFD8071A
:1021B000C1F30E943E20801B910B8C179D0788F372
:1021C000D8CF8091B900887F883111F08034F1F642
:1021D00080E090E0DF91CF911F910F91FF90EF9001
:1021E00008950F931F93CF93DF93EB018093BB0070
:1021F00084E88093BC000E943E208C018091BC004A
:1022000087FD0EC0CF3F8FEFD807C1F30E943E205D
:10221000801B910B8C179D0788F38EEF9FEF0CC0EE
:102220002091B900287F81E090E0283211F480E00D
:1022300090E0919581959109DF91CF911F910F9138
:1022400008950F931F93CF93DF93EC0184E880935D
:10225000BC000E943E208C018091BC0087FD0EC016
:10226000CF3F8FEFD807C1F30E943E20801B910B18
:102270008C179D0788F38EEF9FEF03C08091BB0002
:1022800090E0DF91CF911F910F91089584E98093A1
:10229000BC00089590939301809392010895E0917A
:1022A0009201F0919301309721F00190F081E02D9F
:1022B000099480E00895E0919201F09193013097A4
:1022C00011F480E008950190F081E02D09950895C2
:1022D000EF92FF921F93CF93DF93FC01A0919201A5
:1022E000B0919301109709F442C080910E018823A8
:1022F00041F08091840287FF04C08081818385E062
:102300008083EF011296ED91FC911397CE01099510
:102310008091590282FF2BC080FF04C088E798E0BB
:102320000E947B0518E082E7E82E88E0F82E809175
:10233000590280FF0BC088811F928F93FF92EF920A
:102340000E9414060F900F900F900F90115021963D
:102350001111EDCF8091590280FF09C080E798E00C
:10236000DF91CF911F91FF90EF900C947B05DF914F
:10237000CF911F91FF90EF9008952091900130919F
:1023800091012817390771F0909391018093900182
:10239000E0919201F0919301309721F00680F7814E
:1023A000E02D0994089520918E0130918F01281716
:1023B000390771F090938F0180938E01E091920123
:1023C000F0919301309721F00084F185E02D09947C
:1023D00008950E944A206093A7017093A8018093FA
:1023E000A9019093AA016093A3017093A401809323
:1023F000A5019093A601089585B7806885BF85B72C
:10240000806885BF089581E008950C9403120895B3
:102410000C9407120C9407120C940A120C940712D5
:102420000C940E120C9407120E94FC1184E792E2A5
:102430000E94BD200E9412120C9410120E940812D9
:102440000C9407120E9435200E94360D0C940C1239
:10245000CF93C82F8091590282FF1EC080FF04C015
:1024600081E998E00E947B058091590280FF0CC0B1
:102470001F92CF938CE898E09F938F930E9414064D
:102480000F900F900F900F908091590280FF04C021
:102490008AE898E00E947B058C2FCF910C94D70A94
:1024A0009F92AF92BF92CF92DF92EF92FF920F93E3
:1024B0001F93CF93DF93CDB7DEB72A970FB6F8946B
:1024C000DEBF0FBECDBF0E94470D81110E94E911F2
:1024D00085E9A82E81E0B82E00E010E0902E802F34
:1024E0000E94E80CD82EF501C1905F01C826B1F416
:1024F0000F5F1F4F0E30110589F78FEF89838A8395
:102500001B820E943E208160782F9D838C834981AD
:102510005A816B818D810E942D132FC080915902A9
:1025200081FD0E94EE0CE12CFF24F3948C2D8F2171
:10253000F1F00E940512882399F0EE829F82DF203D
:1025400081E009F480E088870E943E208160782F36
:102550009A8789874E815F8168858A850E942D13BD
:10256000F801EB56FE4F8081F826F08206C0E39416
:10257000FF0CF6E0EF12DACFBBCF0E944F11909123
:1025800094018917B9F00E944F11809394012A9603
:102590000FB6F894DEBF0FBECDBFDF91CF911F9174
:1025A0000F91FF90EF90DF90CF90BF90AF909F90F2
:1025B0000C9428122A960FB6F894DEBF0FBECDBF3A
:1025C000DF91CF911F910F91FF90EF90DF90CF900F
:1025D000BF90AF909F900895DC0111962C911197B8
:1025E0008C91482F50E061E070E001C0660F8A9541
:1025F000EAF712968C91129730E0882319F08091B7
:10260000BB0105C0F901E555FE4F80818623882373
:10261000E1F086E0829FF001839FF00D11244E0FC0
:102620005F1F440F551FFA01E75AFE4FE4911196C0
:10263000EC931197FA01E85AFE4FE491EC93F901FB
:10264000E555FE4F8081682B06C0F901E555FE4F28
:1026500060958081682360830895CF93DF93CDB721
:10266000DEB72B970FB6F894DEBF0FBECDBF4F83FA
:10267000588769877A878B8761110E949B1D9F818C
:1026800088852A853B85232B31F08F3F31F481E00B
:102690009F3F19F403C081E001C080E080FD04C0C9
:1026A000CE0107960E94EC12DE01119686E0FD0134
:1026B00011928A95E9F785E0FE01379601900D9217
:1026C0008A95E1F749815A816B817C818D819E8158
:1026D0000E94661A2B960FB6F894DEBF0FBECDBFD0
:1026E000DF91CF910895FC01808191810E94DC1CD3
:1026F00092959F70963051F4863F41F08091BB01D6
:1027000091E089278093BB019093BA010895CF93FC
:10271000882309F49CC0C82F8238C1F40E944F114D
:1027200081FD95C069E380910201909103010E94AF
:10273000911F0E94C01D2FEF81EE94E02150804038
:102740009040E1F700C0000069E319C0833801F54B
:102750000E944F1180FD7BC063E580910201909142
:1027600003010E94911F0E94C01D2FEF81EE94E093
:10277000215080409040E1F700C0000063E5809167
:102780000201909103010E949C1FCF910C94C01DE7
:102790008438C1F40E944F1182FD59C067E48091D2
:1027A0000201909103010E94911F0E94C01D2FEF12
:1027B00081EE94E0215080409040E1F700C000009D
:1027C00067E4DDCF8CEF8C0F813AD0F46C2F8091D1
:1027D0000201909103010E94EF1E882349F06C2FA3
:1027E00080910201909103010E949C1F0E94C01DD4
:1027F0006C2F80910201909103010E94911FC5CF1F
:1028000080E28C0F883048F4C77081E001C0880FE7
:10281000CA95EAF70E947B1DB8CFEBE5EC0FE330D9
:1028200040F4F0E0E259FE4F808190E0CF910C94AB
:10283000BD11C85AC73158F4EC2FF0E0EE0FFF1F5E
:10284000E05CFE4F80819181CF910C94D311CF91A8
:102850000895882309F45BC0682F823879F40E94B8
:102860004F1181FF54C069E38091020190910301EF
:102870000E94911F0E94C01D69E310C08338B1F40B
:102880000E944F1180FF43C063E580910201909147
:1028900003010E94911F0E94C01D63E58091020107
:1028A000909103010E949C1F0C94C01D843879F400
:1028B0000E944F1182FF2BC067E48091020190912A
:1028C00003010E94911F0E94C01D67E4E7CF8CEFB7
:1028D000860F813A18F380E2860F883048F46770DB
:1028E00081E001C0880F6A95EAF70E94811DDCCF64
:1028F0008BE5860F833020F480E090E00C94BD11CE
:10290000685A673120F480E090E00C94D311089568
:102910001F93CF93DF93182FEB010E94871320970B
:1029200041F08FE99FE00197F1F700C00000219787
:10293000F6CF812FDF91CF911F910C942914893309
:1029400019F060E070E002C060E570E00C9488145B
:10295000882321F00E947B1D0C94C01D08958823BC
:1029600021F00E94811D0C94C01D08958F929F92AA
:10297000AF92BF92CF92DF92EF92FF920F931F938D
:10298000CF93DF936C01C62F172FFC01D2810581F5
:1029900002950F700E943C1D8823B9F0DD23A9F039
:1029A000812F807F803441F090E29C0F983068F056
:1029B000803611F4C63F49F082E00E94101E0E944A
:1029C0003C1D91E0E82EE92601C0E12CB12EB29425
:1029D0009FE0B9228B2D90E08C30910508F014C255
:1029E000FC01E35AFF4F0C943F28012F0F70812FF9
:1029F000807F11F00295007FDD2399F0002309F418
:102A00008AC180E28C0F883010F0C11104C0802F81
:102A10000E947B1D03C0802F0E948E1D0E94C01D3E
:102A20007AC18C2F0E942914002309F4EDC180E2A1
:102A30008C0F883010F0C11104C0802F0E94811DBE
:102A400003C0802F0E94941D0E94C01DDDC1912FE4
:102A50009F70812F807FF92E803219F0F29480EFE1
:102A6000F822CC2319F0C130C9F024C0DD2371F065
:102A7000002341F0013031F40E94A11D8F290E94F2
:102A8000A91DC2C10E94A11D8F290EC0002319F0EB
:102A9000013009F4B9C10E94B61D1EC0DD2339F012
:102AA000023008F0B1C18F2D0E94A814ADC10111F0
:102AB000ABC112C0DD2319F00023A9F32CC1002300
:102AC00059F0C93309F038C1FFEF27EE83E0F15028
:102AD00020408040E1F72EC18F2D0E94AF1494C199
:102AE000812F86958695837019F0813071F08CC1A5
:102AF000DD2331F08C2F912F93700E94BD118CC17A
:102B000080E090E00E94BD1190C1DD2331F08C2F58
:102B1000912F93700E94D3117FC180E090E00E94BA
:102B2000D31183C1812F837009F048C0D11170C1C6
:102B30002C2F229526952770220F220F6C2F6F7055
:102B4000862F90E0A0E0B0E0022E04C0880F991F0D
:102B5000AA1FBB1F0A94D2F7C4FF10C04FE050E079
:102B600060E070E004C0440F551F661F771F2A9570
:102B7000D2F7409550956095709503C040E050E0C5
:102B8000BA01212F2695269523704A015B01882AD8
:102B9000992AAA2ABB2AC501B401223049F058F467
:102BA000213019F00E94371B33C10E94251B30C110
:102BB0000E94491B2DC10E94231B2AC1DD2319F04D
:102BC000812F817001C08695882309F421C12C2FA3
:102BD000229526952770220F220F6C2F6F70862F5B
:102BE00090E0A0E0B0E0022E04C0880F991FAA1F59
:102BF000BB1F0A94D2F7C4FF10C04FE050E060E062
:102C000070E004C0440F551F661F771F2A95D2F746
:102C1000409550956095709503C040E050E0BA0132
:102C2000212F2695269523704A015B01882A992A2F
:102C3000AA2ABB2AC501B401223049F058F4213038
:102C400019F00E941C1CE4C00E940A1CE1C00E94F2
:102C50002E1CDEC00E945D1BDBC0012F0F70DD2328
:102C600039F0802F0E94A31B8C2F0E94A814D0C083
:102C70008C2F0E94AF14802F0E94C41BC9C0C23F7A
:102C8000F9F028F4C03F41F0C13F99F040C0C33F84
:102C9000F1F0C43F31F13BC0DD2339F00111B4C084
:102CA000812F8F710E94E91BAFC0023008F0ACC0C9
:102CB000F7CFDD2339F0812F8F710E94A31BA4C0B1
:102CC000DD23C9F3812F8F710E94C41B9DC0DD23BA
:102CD00029F0812F8F710E948E1B96C00E94691B64
:102CE00093C0DD2351F0012F0F71802F0E94A31B91
:102CF00063E0802F0E94F51D87C081E00E94101EB6
:102D0000023008F481C082E00E94101E7DC0DD23E5
:102D100031F0002381F28C2F0E94871375C00023AD
:102D200089F2C93349F42FEF87EE93E021508040B8
:102D30009040E1F700C000008C2F0E94291464C06D
:102D40008C2F90E0FC01E05FF109E730F10598F588
:102D5000E759FF4F0C943F28DD2309F466C090919A
:102D6000BB0181E0892705C0D093BB0155C081E03C
:102D70008D278093BB0150C0D1114EC081E080935C
:102D8000BB0153C0D11148C01092BB014EC0DD231E
:102D900019F00E94141D40C00E94201D46C0DD2372
:102DA00039F08091BA018823D1F21092BA0134C06F
:102DB0000023A9F23AC08091BA010023C1F0882310
:102DC00041F09091BB0181E089278093BB01109273
:102DD000BA018C2FDD2319F00E9487131DC00E94B9
:102DE000291486E0F60111928A95E9F71EC088231E
:102DF00099F0D11111C09091BB0181E08927809396
:102E0000BB011092BA0111C088EF8B0D843020F401
:102E10000E944F110E94D70ADD2339F0107F10362F
:102E200011F4C63F11F00E942E1DEE20E9F00E9421
:102E3000101D80FD19C0F60112820E940A1D0E9419
:102E4000A31BC6010E9459170E940A1DDF91CF9152
:102E50001F910F91FF90EF90DF90CF90BF90AF90B8
:102E60009F908F900C94C41BDF91CF911F910F9175
:102E7000FF90EF90DF90CF90BF90AF909F908F909A
:102E800008950F931F93CF93DF93EC0168817981AD
:102E90008A810E94E71C8C010E94401C0E94141B26
:102EA000B801CE010E94B614DF91CF911F910F910E
:102EB0000895CF93DF93EC01988189812B813C8128
:102EC000232B31F08F3F31F481E09F3F19F403C091
:102ED00081E001C080E080FD19C0CE010E94D609CA
:102EE00081110CC00E943C1D882381F08A818823B7
:102EF00069F082E0DF91CF910C94101ECE010E9408
:102F00004117CE01DF91CF910C94B309DF91CF919E
:102F10000895882321F00E948E1D0C94C01D0895F1
:102F2000882321F00E94941D0C94C01D089580E018
:102F300090E00E94BD1180E090E00E94D3110E94B9
:102F40009B1D0E949E1D0C94C01D809102019091BA
:102F500003010E94A71F0C9497170E948B1D0C94CD
:102F6000A517E92FE295EF704E2F50E0FA01329746
:102F7000EE30F105B0F4E059FF4F0C943F28803F4C
:102F800091F018F4883E68F40EC0843F51F40BC0F1
:102F9000883E48F0813F29F406C093FB882780F9DA
:102FA000089580E0089581E008950E94DC1C0E944D
:102FB000B1170895CF93DF9300D000D01F92CDB703
:102FC000DEB70F900F900F900F900F90DF91CF9181
:102FD0000895CF93DF9300D000D000D0CDB7DEB7F7
:102FE00026960FB6F894DEBF0FBECDBFDF91CF910E
:102FF00008951F93CF93DF93C091BC0116E0809199
:10300000BD01C81799F0D0E01C9FF0011D9FF00D85
:103010001124E254FE4F4081518162817381848189
:1030200095810E94E9172196C770E9CFDF91CF9172
:103030001F9108954091EE015091EF016091F001D0
:103040007091F1018091F2019091F3010C94E917D4
:103050000F931F93CF93DF938091F30182958F702D
:1030600009F05DC08091F001882309F458C0809177
:10307000BC011091BD016091EE017091EF01C09112
:10308000F101D091F20191E06F3F09F090E0292F1A
:1030900006E0811709F443C0209721F07F3F21F01B
:1030A00030E003C031E001C0322F90E030FD34C089
:1030B000089FF001099FF00D1124DF01A254BE4FBB
:1030C00011963C911197371327C03C91361324C0B9
:1030D00012963C91129731111FC013964D915C913D
:1030E00014974C1B5D0B483C5105B0F48091F301E3
:1030F0008F7080618093F301ED53FE4F80818F705C
:10310000806180838EEE91E00E945917DF91CF910C
:103110001F910F910C94F91701968770BACFDF9128
:10312000CF911F910F9108959F92AF92BF92CF922E
:10313000DF92EF92FF920F931F93CF93DF93CDB760
:10314000DEB761970FB6F894DEBF0FBECDBF8C011E
:1031500085E0F801DE011D9601900D928A95E1F758
:10316000F80140815181E2809091EE016091EF0180
:103170002091F1013091F2012115310531F06F3FBD
:1031800031F481E09F3F19F403C081E001C080E089
:10319000F82FF1709F2E80FD46C1F801A380B48006
:1031A0008EEEC82E81E0D82EF090F001F501E21BE2
:1031B000F30BFF2009F4DFC08091F301E83CF10537
:1031C00008F09BC0282F207F09F052C0561313C06F
:1031D000491311C0FE2CE1100EC08F7080618093E6
:1031E000F3010E941A18C6010E9459178091F30139
:1031F000F801858358C1AB2831F05F3F31F481E09D
:103200004F3F19F403C081E001C080E080FD03C09E
:1032100081E08E2502C080E090E0F82FF170FF2E53
:1032200080FF1CC08091BC012091BD0136E0821757
:1032300009F417C190E0389FF001399FF00D112477
:10324000E254FE4F6181561306C06081461303C0ED
:103250006281E61203C001968770E9CFFE2CEE2052
:1032600009F421C18091F30181608093F3015AC078
:10327000561306C0491304C0E11002C0F8019FC0F4
:103280004D875E878D859E850E94D517882379F1AD
:10329000EE2069F12091F301822F82958F7090E0EA
:1032A000029774F08091EE019091EF0198878F83DF
:1032B0001986BB86AA862C87CE0107960E945917CD
:1032C00086E0F801AEEEB1E001900D928A95E1F74B
:1032D0000E9428180E941A180DC0561729F14D8710
:1032E0005E878D859E850E94D51781112CC0C801EF
:1032F0000E945917FF24F394D6C0282F207F69F726
:103300007A2DB98AA88A6E2D89890E94DA178EEEE5
:1033100091E00E94591786E0F60111928A95E9F72B
:103320000E941A18F12CBFC04913D9CFE110D7CF92
:10333000F8018583C8010E94591786E0F6011192B1
:103340008A95E9F7B0C0EE2091F22091F301822F27
:1033500082958F7090E002970CF4B2CF8091EE01CD
:103360009091EF019A8389831B82BD82AC822E8368
:10337000CE010196A3CFE83CF10508F047C0FE2C32
:10338000EE2009F4B4CF561330C049132EC020915B
:10339000F30120FD21C0822F82958F70482F50E0CD
:1033A00041155105C9F0F80125834F30510541F011
:1033B0008F5F982F9295907F822F8F70892B8583B6
:1033C000C8010E94591786E0F801AEEEB1E0019005
:1033D0000D928A95E1F742C086E0F801AEEEB1E0C9
:1033E00001900D928A95E1F75EC04D875E878D85CD
:1033F0009E850E94D517811163CF8091F301816072
:103400008093F301C8010E9459174DC07A2DB98AE3
:10341000A88A6E2D89890E94DA1786E0F60111923A
:103420008A95E9F71BC0EE2009F461CF4D875E87CE
:103430008D859E850E94D517F82E882309F457CFD5
:1034400086E0F801AEEEB1E001900D928A95E1F7C9
:103450008EEE91E00E9473130E9428180E941A18A1
:1034600022C04D875E878D859E850E94DC1C292F9A
:1034700022952F70223028F49F7039F0811105C0F9
:103480000BC0243028F49F7049F4805E883020F00F
:10349000C8010E9459179F2CF92C05C0F80195818D
:1034A000907F99F7F9CF8F2D61960FB6F894DEBF14
:1034B0000FBECDBFDF91CF911F910F91FF90EF9085
:1034C000DF90CF90BF90AF909F9008951F93CF93C0
:1034D000DF93CDB7DEB72C970FB6F894DEBF0FBEE3
:1034E000CDBF4F83588769877A878B879C87CE01AA
:1034F00007960E9494188823D1F09F8188852A8599
:103500003B85232B31F08F3F31F481E09F3F19F44D
:1035100003C081E001C080E080FD47C04F81588535
:1035200069857A858B859C850E94E9173EC086E077
:10353000FE013796DE01119601900D928A95E1F712
:10354000FF81E8856A857B856115710531F0EF3F64
:1035500031F481E0FF3F19F403C081E001C080E055
:1035600080FD23C02091BD0130E0C9010196877024
:1035700099274091BC0150E084179507F1F1F98338
:10358000EA837D836C8396E0929FD001939FB00D78
:103590001124A254BE4FFE01319601900D929A95CE
:1035A000E1F78093BD010E94F91716E08091BC01FC
:1035B0009091BD01891771F1189FC00111248254A7
:1035C0009E4F0E949418882329F1E091BC011E9F10
:1035D000F0011124E254FE4F4081518162817381D8
:1035E000848195810E94E9178091BC0190E0019649
:1035F000877099278093BC01D9CF0E94AD17109294
:10360000BD011092BC01EEEEF1E086E0DF011D92FB
:103610008A95E9F72C960FB6F894DEBF0FBECDBFA2
:10362000DF91CF911F91089508950C94D5080E94C1
:10363000151B60932F027093300280933102909398
:1036400032020C9497170C94171B0F931F93009141
:103650002F02109130022091310230913202602B02
:10366000712B822B932B1F910F910C94171B0F938F
:103670001F9300912F02109130022091310230915E
:10368000320260237123822393231F910F910C94A4
:10369000171B0F931F9300912F021091300220915E
:1036A00031023091320260277127822793271F91C0
:1036B0000F910C94171B0C94A4080E945B1B609341
:1036C0002B0270932C0280932D0290932E020C9467
:1036D000971760E070E0CB010C945D1B61157105DC
:1036E0008105910529F481E0442361F080E008958B
:1036F000DC01CB0104C0B695A795979587954A95AF
:10370000D2F781700895482F60912B0270912C029E
:1037100080912D0290912E020C946E1B0F931F939B
:1037200041E050E060E070E08A019B0104C0000FBE
:10373000111F221F331F8A95D2F7C901B8011F91AB
:103740000F910C945D1B0F931F9341E050E060E0DC
:1037500070E004C0440F551F661F771F8A95D2F78B
:1037600080912B0290912C02A0912D02B0912E02FB
:103770008A019B01082B192B2A2B3B2BC901B8016D
:103780001F910F910C945D1B0F931F9341E050E02C
:1037900060E070E004C0440F551F661F771F8A95D4
:1037A000D2F7409550956095709580912B0290913D
:1037B0002C02A0912D02B0912E028A019B010823B8
:1037C00019232A233B23C901B8011F910F910C949F
:1037D0005D1B0F931F9341E050E060E070E004C078
:1037E000440F551F661F771F8A95D2F780912B02D1
:1037F00090912C02A0912D02B0912E028A019B0182
:10380000082719272A273B27C901B8011F910F91C3
:103810000C945D1B0F931F9300912B0210912C02AF
:1038200020912D0230912E02602B712B822B932B35
:103830001F910F910C945D1B0F931F9300912B020E
:1038400010912C0220912D0230912E0260237123C1
:10385000822393231F910F910C945D1B0F931F9351
:1038600000912B0210912C0220912D0230912E02FA
:1038700060277127822793271F910F910C945D1B5E
:103880000895292F220F920F990F890FE82FE6959F
:10389000E695E695877051E001C0550F8A95EAF7E5
:1038A00085E0E89FF0011124EC50FE4F20E030E06D
:1038B00070E04081CB01022E02C0969587950A9454
:1038C000E2F78170819584278523842781932F5F78
:1038D0003F4F2530310569F70895292F220F920FA8
:1038E000990F890F682F669566956695982F977042
:1038F00085E0689FB001112440E050E080E0FB01CA
:10390000E40FF51FEC50FE4F208130E0092E02C07D
:10391000369527950A94E2F721703327042E01C0CB
:10392000220F0A94EAF7822B4F5F5F4F4530510513
:1039300031F70895BF92CF92DF92EF92FF920F93EB
:103940001F93CF93DF938C01C0902B02D0902C0259
:10395000E0902D02F0902E0280912F029091300283
:10396000A0913102B0913202C82AD92AEA2AFB2A50
:10397000CFE1D0E0D701C6010C2E04C0B695A795C3
:10398000979587950A94D2F780FD04C0219790F708
:10399000B12C07C0BC2EB8018C2F0E94F30A0197EE
:1039A000A9F38B2DDF91CF911F910F91FF90EF9095
:1039B000DF90CF90BF900895CF93DF93EC010E94EA
:1039C0009A1CBE010E94F30ADF91CF9108951F93C4
:1039D000CF93DF93EB019091B901992321F0CB01B3
:1039E0000E94DC1C13C0882349F0CB010E949A1C62
:1039F000182F682FCE010E94411C04C0CB010E94E9
:103A00006D1C182FBE01812F0E94F30ADF91CF9108
:103A10001F91089580913402859585958595089527
:103A2000809134028770089582E08093330281E0B0
:103A30008093BB010895109233021092BB01089548
:103A400080913302823019F481E0809333028091B7
:103A50003302833011F40C941B1D089580913302BE
:103A6000823019F483E080933302809133028130F5
:103A700011F40C941B1D089590913402977081E00D
:103A800009F480E00895CF939091850292FB22275C
:103A900020F92817E1F0C82F892FC0FB82F9809305
:103AA000850280918402909185020E94511E80912E
:103AB000590280FF0CC01F92CF9384EA98E09F9335
:103AC0008F930E9414060F900F900F900F90CF913C
:103AD00008958091850282FB882780F991E08927EB
:103AE0000C94431D81E00C94431D80E00C94431D15
:103AF00080915802089590915802892B8093580222
:103B000008958095909158028923809358020895D2
:103B10008093580208951092580208959091570288
:103B2000892B80935702089580959091570289239D
:103B300080935702089510925702089510925602EA
:103B4000089580913502089508950C94A41D0C9455
:103B5000A51D9091850292FD08C09091350298179D
:103B600021F0809335020C94A71D089580913502B1
:103B7000882329F01092350280E00C94A71D089547
:103B8000E0910201F0910301809158028083E0915D
:103B90000201F0910301908180915702892B80836B
:103BA000E0910201F0910301908180915602892BEE
:103BB000808380913502882381F0E0910201F091A9
:103BC00003019081892B80838091020190910301F0
:103BD0000E94D91E81110E94B61D80910201909110
:103BE00003010C9468110C94A41D9091850292FD20
:103BF00010C098E0899F90011124262B2093340255
:103C00000E94A31B809134028595859585950C941F
:103C1000F31D0C94A31B1092340280E00C94F31D4E
:103C2000209134028095822380933402982F9770DC
:103C300041F430E0482F082E000C550B24173507AF
:103C400021F49091850292FF07C085958595859511
:103C50000E94C41B0C940B1E089580E090E00E940B
:103C6000532821E08A3E9E4F09F020E0822F0895DC
:103C700082E090E00C94452883E090E00C94452885
:103C8000CF9384E090E00E944528C82F82E290E024
:103C90000E9445282C2F30E0A901582BCA01CF9152
:103CA0000895CF93C92F682F84E090E00E9459288F
:103CB0006C2F82E290E0CF910C9459288FE090E035
:103CC0000C944D28AB01BC018FE090E00C946B2864
:103CD000AB01BC0183E190E00C946B2860E070E0E4
:103CE000CB010C94681E6AEE7EEF80E090E00E94AB
:103CF000772860E082E090E00E94592860E083E04D
:103D000090E00E94592810922F02109230021092D7
:103D100031021092320260E084E090E00E94592863
:103D200060E082E290E00E94592860E085E090E047
:103D30000E94592860E086E090E00E9459286FEFC9
:103D400087E090E00E94592840E050E0BA0188E006
:103D500090E00E946B2860E08DE090E00E9459287E
:103D600040E050E0BA0188E190E00E946B2860E0FA
:103D700087E190E00E94592840E050E0BA018CE1D0
:103D800090E00E946B2860E070E080E290E00E948A
:103D9000772840E050E0BA0188E190E00E946B286B
:103DA0000C9446080C94731E682F8EE090E00C94DF
:103DB0005928FC01329680910E01882331F08091C0
:103DC000840287FF02C09EE101C096E080E091502E
:103DD00028F021912223D9F38F5FF9CF089566232C
:103DE00051F120910E012223E9F02091840227FF56
:103DF00019C0462F4695469546954E31E0F46770BA
:103E000021E030E002C0220F331F6A95E2F7FC0187
:103E1000E40FF11D828190E02823392381E0232BD8
:103E200069F409C0FC01329608962191621729F0C5
:103E3000E817F907D1F780E0089581E008959C0123
:103E4000FC0132969FEF80E04191461789F09F3F39
:103E500019F4411101C0982F8F5F8630A9F79F3F59
:103E600039F0F901E90FF11D97FDFA956283089584
:103E700008959C012A5F3F4FFC014281461301C017
:103E80001282019682179307B9F70895262F269577
:103E9000269526952E3170F4FC01E20FF11D677016
:103EA00021E030E001C0220F6A95EAF78281282BD9
:103EB000228308958091590280FF0CC01F926F9356
:103EC00087ED98E09F938F930E9414060F900F90B8
:103ED0000F900F900895262F2695269526952E3122
:103EE00078F4FC01E20FF11D677021E030E001C0C1
:103EF000220F6A95EAF7209582812823228308956C
:103F00008091590280FF0CC01F926F9389EB98E05B
:103F10009F938F930E9414060F900F900F900F9015
:103F2000089520910E01222329F02091840227FD7B
:103F30000C94461F0C941F1F20910E01222329F080
:103F40002091840227FD0C946B1F0C94391F209143
:103F50000E01FC013296222331F08091840287FF0A
:103F600002C08EE101C086E0DF011D928A95E9F76B
:103F7000089508950C94B91FCF930E942E070E94B4
:103F8000470D0E94BA1FC0E08C2F0E94E80C8111DF
:103F900004C0CF5FCE30C1F701C081E0CF9108955A
:103FA0000C94B91F0C94D01F8091B002843049F159
:103FB0000E94D21F80E00E94D70A10925A0220E489
:103FC00088E190E00FB6F894A895809360000FBE4A
:103FD0002093600083B7817F846083BF83B7816053
:103FE00083BF7894889583B78E7F83BF0FB6F8948C
:103FF000A8958091600088618093600010926000B5
:104000000FBE08950C94B91F0E94AD170E944F1166
:104010000E94D70A0C9402201F920F920FB60F92A3
:1040200011248F939F93AF93BF9380915A02811174
:1040300013C08091A8029091A902A091AA02B09108
:10404000AB024196A11DB11D8093A8029093A902D5
:10405000A093AA02B093AB02BF91AF919F918F91B1
:104060000F900FBE0F901F90189582E084BD93E0D3
:1040700095BD9AEF97BD80936E0008952FB7F89481
:104080008091A8029091A902A091AA02B091AB02DE
:104090002FBF08952FB7F8946091A8027091A902DC
:1040A0008091AA029091AB022FBF08959C014FB757
:1040B000F8948091A8029091A902A091AA02B091CF
:1040C000AB024FBF821B930B089578941F920F92FF
:1040D0000FB60F9211248F939F93AF93BF9380914C
:1040E000A8029091A902A091AA02B091AB020196F8
:1040F000A11DB11D8093A8029093A902A093AA02CA
:10410000B093AB02BF91AF919F918F910F900FBE73
:104110000F901F901895F89481E08093E00080E262
:104120008093D800E9ECF0E010828FE19EE40197E3
:10413000F1F700C000001DBA109268001CBC10BE50
:104140001FBA10927A0010926E0010926F001092B7
:104150007100109272001082ECEBF0E0108214B843
:1041600017B81AB81DB810BA108215B818B81BB80D
:104170001EB811BA0C94003F08959093810180936A
:104180008001089580917E0208950895CF93DF9372
:1041900000D01F92CDB7DEB79091B002943019F5E0
:1041A00089837B836A8382E08093E9008FEF90911B
:1041B000E800815095FD06C095ED9A95F1F7000055
:1041C0008111F5CF8091E80085FF0DC040E050E0FF
:1041D00063E070E0CE0101960E9496238091E80092
:1041E0008E778093E8000F900F900F90DF91CF9122
:1041F0000895BC0184E00C94C620BC0183E00C94BB
:10420000C620CF93DF9320910E01222339F0209115
:10421000840227FF03C060E222E002C068E021E0E0
:104220002093E9002FEF3091E800215035FD06C0C2
:1042300035ED3A95F1F700002111F5CF2091E80016
:1042400025FF1DC0EC0180910E01811105C040E0E9
:1042500050E068E070E003C070E040E050E0CE0164
:104260000E9496238091E8008E778093E80080E298
:10427000FE01AEE5B2E001900D928A95E1F7DF9183
:10428000CF9108958AE199E00E947B058091AF0269
:10429000811109C00E9427250E9484258091E20097
:1042A00084608093E200089586E199E00E947B0596
:1042B0001092AF02089582E199E00C947B058EE0A4
:1042C00099E00C947B058AE099E00C947B052091A1
:1042D0005C022F5F822F62E30E943328992319F03A
:1042E00020935C02089510925C0280915D02882305
:1042F00071F18091B002843041F58091E9008F70B6
:104300002091EC00922F917020FD90E8892B93E092
:104310009093E9009091EB0090FF14C09091EE0013
:1043200097FF10C09091E80095FF03C01092F10034
:10433000F9CF9091E80090FF05C09091E8009E773A
:104340009093E8008F708093E90010925D020895C9
:1043500042E061EC81E00E94A02442E261EC82E054
:104360000E94A02442E261EC83E00C94A02480919E
:10437000B202833009F460C030F4813071F08230D1
:1043800009F499C008958A3009F485C08B3009F486
:104390006BC0893009F0A7C020C08091B102813A7A
:1043A00009F0A1C08091E800877F8093E8008091A8
:1043B000B5029091B602892B21F460E28EE592E07D
:1043C00003C060E080E090E070E00E94E123809113
:1043D000E8008B778093E80008958091B1028132E4
:1043E00009F081C08091B5029091B602029708F061
:1043F0007AC08091E800877F8093E8008091E80090
:1044000082FD05C08091B0028111F8CF6CC020916F
:10441000F3008091F20090E0922B029729F48091B2
:10442000F1008B7F813021F48091F10080937E0236
:104430008091E8008B7753C08091B102813A09F0F6
:1044400052C08091B5029091B602892B09F04BC001
:104450008091E800877F8093E8008091E80080FFEA
:10446000FCCF80910E0136C08091B1028132D9F526
:104470008091B5029091B602892BA9F58091E80050
:10448000877F8093E8000E94D5248091B3028093B7
:104490000E010C94AD178091B102813221F580910B
:1044A000E800877F8093E8000E94D5248091B402C1
:1044B00080937F0208958091B102813AA1F48091A6
:1044C000E800877F8093E8008091E80080FFFCCFC0
:1044D00080917F028093F1008091E8008E77809335
:1044E000E8000C94D52408959FB7F89410925D02CB
:1044F0009FBF9091B002943009F057C09091E900AD
:104500009F703091EC00232F217030FD20E8922B1A
:1045100023E02093E9002091EB0020FF43C020918D
:10452000EE0027FF3FC020915B02222321F0209163
:10453000E80025FF37C010925B0226E03091E800CA
:1045400035FD15C03091B002343061F53091EB008B
:1045500035FD28C0215021F481E080935B0222C008
:10456000EFE9FFE03197F1F700C00000E7CF80935B
:10457000F1008091E80085FD0AC08091E80080FF8D
:10458000FCCF8091E8008E778093E80006C08FB75B
:10459000F89421E020935D028FBF9F709093E90013
:1045A00080E008959F709093E9008FEF089584B79D
:1045B000877F84BF0FB6F894A895809160008861CA
:1045C00080936000109260000FBE90E080E80FB60C
:1045D000F89480936100909361000FBE0E941412C2
:1045E0000E9427250E9484258091E20084608093A8
:1045F000E20078940E9418280E94221284E091E040
:104600000E944A1189EF98E00E947B058091B002D8
:104610008530C9F485EF98E00E947B058091B00257
:10462000853079F40E94D41F8091AE028823B1F3C3
:104630000E94BC1F882391F30E9480230E94AD1723
:10464000EDCF0E9404200E9450120E941E12DECF65
:104650000C942A23292F332723303105C9F060F425
:104660002130310581F02230310509F041C08BE560
:1046700090E024E639E040C021323105E1F02232F9
:10468000310531F135C082E190E02FEB39E034C0E3
:1046900099278130910549F028F0029749F5EEE11C
:1046A000F9E005C0E0E6F9E002C0E6E3F9E0849154
:1046B00090E09F0121C063307105D0F4660F771F31
:1046C000FB01E658FE4F2081318189E090E014C063
:1046D0006330710568F4FB01EE0FFF1FEC58FE4FCD
:1046E00020813181FB01EF58FE4F808190E004C0B2
:1046F00080E090E020E030E0FA01318320830895EB
:1047000080E189BD82E189BD09B400FEFDCF8091C1
:10471000D8008F7D8093D8008091E00082608093E4
:10472000E0008091E00081FDFCCF0895CF92DF9200
:10473000EF92FF920F931F93CF93DF93EC018B01C6
:104740007A010E94F424811133C0E114F10439F09C
:10475000F70180819181081B190BC80FD91FC12C4B
:10476000D12C0115110519F18091E80085FD16C0C5
:104770008091E8008E778093E800E114F10449F01D
:10478000F70180819181C80ED91ED182C08285E057
:104790000FC00E94F424882321F30AC089918093DA
:1047A000F10001501109FFEFCF1ADF0ADACF80E0E4
:1047B000DF91CF911F910F91FF90EF90DF90CF90FD
:1047C00008952091B7023091B8022617370748F0B4
:1047D0006115710539F42091E8002E772093E800E7
:1047E00001C0B901FC0120E06115710579F18091EA
:1047F000B0028823F1F18530F1F18091E80083FD6A
:104800003CC08091E80082FD2EC08091E80080FFCE
:10481000EBCF2091F3008091F20090E0922B611594
:10482000710551F08830910538F421912093F10001
:10483000615071090196F3CF21E0089709F020E05B
:104840008091E8008E778093E800CECF2111CFCF02
:104850000AC08091B002882361F0853061F08091B8
:10486000E80083FD0AC08091E80082FFF2CF80E07B
:10487000089582E0089583E0089581E008952091ED
:10488000B7023091B8022617370748F06115710555
:1048900039F42091E8002E772093E80001C0B90197
:1048A000FC0120E06115710591F18091B00288232F
:1048B00009F440C0853009F43FC08091E80083FDD1
:1048C0003DC08091E80082FD2FC08091E80080FF0C
:1048D000E9CF2091F3008091F20090E0922B6115D6
:1048E000710559F08830910540F424912093F1002E
:1048F0003196615071090196F2CF21E0089709F0D5
:1049000020E08091E8008E778093E800CBCF2111E2
:10491000CCCF0AC08091B002882361F0853061F06D
:104920008091E80083FD0AC08091E80082FFF2CF09
:1049300080E0089582E0089583E0089581E008957D
:10494000982F973068F59093E900981739F0709197
:10495000EC002091ED005091F00003C0242F762F41
:1049600050E021FD02C09F5FECCF3091EB003E7F15
:104970003093EB003091ED003D7F3093ED003091AE
:10498000EB0031603093EB007093EC002093ED006E
:104990005093F0002091EE0027FDE5CF80E00895D0
:1049A0008F708093E90081E008958091B10287FFC4
:1049B00011C08091E80082FD05C08091B002811194
:1049C000F8CF11C08091E8008B770BC08091B002C6
:1049D000882349F08091E80080FFF8CF8091E800BB
:1049E0008E778093E80008952091E4003091E500EF
:1049F00095E64091EC00842F817040FF23C08091A8
:104A0000E80080FD1DC08091B002882399F08530B8
:104A100099F08091EB0085FD11C04091E400509128
:104A2000E5002417350729F3915011F09A01E1CFE1
:104A300084E0089582E0089583E0089581E0089578
:104A400080E008954091E80042FFDDCF08950E9484
:104A500095250E949D25E0EEF0E0808181608083B5
:104A6000E8EDF0E080818F77808319BCA7EDB0E09E
:104A70008C918E7F8C9380818F7E80831092AF0289
:104A800008950F931F93CF93DF930E9495250E9463
:104A90009D25C8EDD0E088818F77888388818068E4
:104AA000888388818F7D888319BC1092B002109210
:104AB000AC021092AE021092AD0200EE10E0F801CE
:104AC00080818B7F808388818160888342E060E081
:104AD00080E00E94A024E1EEF0E080818E7F808360
:104AE000E2EEF0E080818160808380818860808355
:104AF000F80180818E7F8083888180618883DF9147
:104B0000CF911F910F910895E8EDF0E080818F7EA5
:104B10008083E7EDF0E080818160808384E082BF64
:104B200081E08093AF020C944125E8EDF0E08081B4
:104B30008E7F80831092E20008951092DA00109226
:104B4000E10008951F920F920FB60F9211242F9338
:104B50003F934F935F936F937F938F939F93AF9305
:104B6000BF93EF93FF938091E10082FF0BC0809190
:104B7000E20082FF07C08091E1008B7F8093E1001B
:104B80000E9467218091DA0080FF1FC08091D800C9
:104B900080FF1BC08091DA008E7F8093DA008091C5
:104BA000D90080FF0DC080E189BD82E189BD09B4D3
:104BB00000FEFDCF81E08093B0020E94422105C03B
:104BC00019BC1092B0020E9454218091E10080FF34
:104BD00019C08091E20080FF15C08091E2008E7FB5
:104BE0008093E2008091E20080618093E2008091F6
:104BF000D80080628093D80019BC85E08093B00211
:104C00000E945F218091E10084FF30C08091E2002A
:104C100084FF2CC080E189BD82E189BD09B400FE1A
:104C2000FDCF8091D8008F7D8093D8008091E100E6
:104C30008F7E8093E1008091E2008F7E8093E2007E
:104C40008091E20081608093E2008091AC02882331
:104C500011F084E007C08091E30087FD02C081E08D
:104C600001C083E08093B0020E9463218091E10043
:104C700083FF29C08091E20083FF25C08091E1007D
:104C8000877F8093E10082E08093B0021092AC02B3
:104C90008091E1008E7F8093E1008091E2008E7F21
:104CA0008093E2008091E20080618093E20042E024
:104CB00060E080E00E94A0248091F00088608093F2
:104CC000F0000E945B21FF91EF91BF91AF919F9106
:104CD0008F917F916F915F914F913F912F910F90A5
:104CE0000FBE0F901F9018951F920F920FB60F9244
:104CF00011242F933F934F935F936F937F938F93E1
:104D00009F93AF93BF93CF93DF93EF93FF93C091A4
:104D1000E900CF708091EC00D82FD17080FDD0E8F1
:104D20001092E9008091F000877F8093F0007894E2
:104D30000E94B8261092E9008091F000886080936C
:104D4000F000CD2BCF70C093E900FF91EF91DF9180
:104D5000CF91BF91AF919F918F917F916F915F9113
:104D60004F913F912F910F900FBE0F901F9018956C
:104D70001F93CF93DF93CDB7DEB7AA970FB6F89402
:104D8000DEBF0FBECDBFE1EBF2E08091F100819379
:104D900022E0E93BF207C9F70E94B7218091E800C1
:104DA00083FF2EC18091B1029091B202492F50E051
:104DB0004A30510508F024C1FA01E258FF4F0C9423
:104DC0003F28803821F0823809F01AC108C080914C
:104DD000AD029091AE02992389F082600FC080915C
:104DE000B5028F70873008F00BC18093E900809185
:104DF000EB0085FB882780F91092E9009091E8008C
:104E0000977F9093E8008093F1001092F100D1C059
:104E1000282F2D7F09F0F4C0882319F0823061F02B
:104E2000EFC08091B302813009F0EAC0933009F0FD
:104E300080E08093AE022EC08091B30281112AC01F
:104E40008091B5028F702FEF280F263008F0D8C060
:104E50008093E9002091EB0020FF1CC0933021F4E7
:104E60008091EB00806214C09091EB009061909370
:104E7000EB0021E030E0A90102C0440F551F8A95E4
:104E8000E2F74093EA001092EA008091EB0088601C
:104E90008093EB001092E9008091E800877F809377
:104EA000E8000E94D524ACC08111AAC01091B302C1
:104EB0001F778091E3008078812B8093E3008091BD
:104EC000E800877F8093E8000E94D5248091E80065
:104ED00080FFFCCF8091E30080688093E300111194
:104EE00002C082E001C083E08093B00289C0805894
:104EF000823008F085C08091B3029091B4028C3D5D
:104F000053E0950779F583E08A838AE289834FB776
:104F1000F894DE01139620E03EE051E2E32FF0E04A
:104F200050935700E49120FF03C0E295EF703F5F7C
:104F3000EF708E2F90E0EA3010F0C79601C0C09657
:104F40008D939D932F5F243149F74FBF8091E800E7
:104F5000877F8093E8006AE270E0CE0101960E94AC
:104F6000E12316C06091B5027091B602AE014F5FA9
:104F70005F4F0E942823BC01892B09F441C0909106
:104F8000E800977F9093E80089819A810E943F24EE
:104F90008091E8008B778093E80032C0803881F5FB
:104FA0008091E800877F8093E8008091AC02809335
:104FB000F1008091E8008E7772CF811121C080913D
:104FC000B3029091B40299270297D4F48091E8003B
:104FD000877F8093E8008091B3028093AC020E94A7
:104FE000D5248091AC02811106C08091E30087FD39
:104FF00002C081E001C084E08093B0020E94A82139
:105000008091E80083FF0AC08091E800877F809349
:10501000E8008091EB0080628093EB00AA960FB6C7
:10502000F894DEBF0FBECDBFDF91CF911F910895E1
:10503000CF938091B0028823A1F0C091E900CF7096
:105040009091EC00892F817090FD80E8C82B109220
:10505000E9008091E80083FD0E94B826CF70C093DC
:10506000E900CF910895991B79E004C0991F961724
:1050700008F0961B881F7A95C9F780950895EE0F62
:10508000FF1F0590F491E02D0994F999FECF92BD90
:1050900081BDF89A992780B50895A6E1B0E044E073
:1050A00050E00C947F28A8E1B0E042E050E00C947E
:1050B0007F28262FF999FECF92BD81BDF89A0197DE
:1050C00000B4021639F01FBA20BD0FB6F894FA9A50
:1050D000F99A0FBE08950396272F0E945A280E941E
:1050E0005928252F0E945A28242F0C945A280196BB
:1050F000272F0E945A280C945928DC01CB01FC016F
:10510000F999FECF06C0F2BDE1BDF89A319600B420
:0E5110000D9241505040B8F70895F894FFCF2B
:10511E0020003602C2200121C520FD20F92001E227
:10512E0000E900EA00B500B600B700CD008301CC5F
:10513E00008A0192019401210223022402250226F3
:10514E000227022A02B300B4006F0070008182832E
:10515E00E200E900EA00B500B600B700CD00830119
:10516E00CC008A019201940121022302240225021D
:10517E00260227022A02B300B4006F00700081825B
:10518E0083406D22600AF309D10976098F09A809B7
:00000001FF
