:100000000C94AA040C94C7040C94C7040C94C70461
:100010000C94C7040C94C7040C94C7040C94C70434
:100020000C94C7040C94C7040C9471260C944327B9
:100030000C94AF200C94C7040C94C7040C94C70410
:100040000C94C7040C94C7040C94C7040C94C70404
:100050000C94C7040C94FC200C94C7040C94C704A3
:100060000C94C7040C94C7040C94C7040C94C704E4
:100070000C94C7040C94C7040C94C7040C94C704D4
:100080000C94C7040C94C7040C94C7040C94C704C4
:100090000C94C7040C94C7040C94C7040C94C704B4
:1000A0000C94C7040C94C7040C94C704CB05CE056C
:1000B000D105D405D705DA05DD0527080209300882
:1000C0003C082E08F5085F088008A308C408EA0861
:1000D000B814B814EA14EA143315DD167816DD16D0
:1000E0005515F015021602166F16DD16DD16D71619
:1000F0008416A5168C168F16981694169D16A4179E
:10010000A417B617B617AD17B617B617B617A417B4
:10011000A417B217B617B617B217B027D727CF282C
:10012000D727CF2823284628CF289D28AC280A0087
:100130002530313662003A200025303258000A72EC
:100140002F6320303132333435363738394142432A
:100150004445460A006C65667420736964652061D5
:10016000747461636865640A006C65667420736901
:100170006465206E6F7420726573706F6E64696E53
:10018000670A00747279696E6720746F20726573F4
:100190006574206D637032333031380A0025640A8B
:1001A00000010128003A62656C6F777269676874B4
:1001B000206E657700010129000102E0770103E06C
:1001C0006A0001012900010128003A6C656674612A
:1001D000626F7665206E657700010129000102E0FB
:1001E000770103E06B0001012900010128003A7644
:1001F00065727420626F747269676874206E6577C7
:1002000000010129000102E0770103E06C00010117
:100210002900010128003A7665727420746F706CB1
:10022000656674206E657700010129000102E077A0
:100230000103E068000101290021022B00290001CF
:1002400051E0000000240233000400340001000CDF
:100250005D2F00360012001400010005012F023747
:100260000008000D0050002C003002130018000E92
:10027000004F00440026021C000C001B000000057B
:10028000532E0031000000E3000000010020021F97
:1002900002000035080000010025020900070005E2
:1002A000000000010027020A000B001000520002AB
:1002B000522E02060017001A0051002800300015C7
:1002C000001100190001002B001E020F0016001D76
:1002D0000001000B5D2A0038002D00E50001000040
:1002E0000035022B02010001000100000024003350
:1002F000020402340201000100220036021202143C
:1003000002010001002000370208020D0201000175
:10031000001E00130218020E020100010026001C3C
:10032000020C021B02000001002202310200000147
:100330000000000100350023020000010000000160
:10034000002700090207020502000001001F000A41
:10035000020B021002010001002100060217021A1E
:100360000201002802230015021102190201002BCC
:100370000225000F0216021D0201000100010038D3
:10038000022D020100010000002E002B002900E1D7
:1003900000E00000001E00140004001D6134000C89
:1003A0005D1F001A0016001B00E2002A0020000852
:1003B000000700060050002C00210015000900195C
:1003C000004F004400220017000A000500000065ED
:1003D000644C0001000000E3000000E3004F000156
:1003E00000000000070000E20023001C000B0011C9
:1003F0000000002961240018000D001000520000C8
:100400005225000C000E0036005100280026001274
:10041000000F0037002F002B002700130033003897
:100420007130000B5D2A0031000100E50001000081
:1004300000010001000100010001000000010001B5
:1004400000010001000100010001000100010001A4
:100450000001000100010001000100010001000194
:100460000001000100010001000100010001000184
:100470000001000100000001000100010000000176
:100480000000000100010001000000010000000167
:100490000001000100010001000000010001000155
:1004A0000001000100010001000100010001000144
:1004B0000001000100010001000100010001000134
:1004C0000001000100010001000100010001000124
:1004D0000001000100010000000100010001000115
:1004E0000001000000010001000100010001000105
:1004F00000010001000100010001000100010001F4
:1005000000010001000100010001000100010001E3
:1005100000010001000100010001000100000001D4
:1005200000010001000000010000000100010001C5
:1005300000000001000000010001000100010001B5
:1005400000000001000100010001000100010001A4
:100550000001000100010001000100010001000193
:100560000001000100010001000100010001000183
:100570000001000100010001000100010001000074
:100580000001000100010001000100000001000164
:1005900000010001000E5D010001000100010001E9
:1005A000000100010001000100010001000F5D01D8
:1005B000000100010001000100105D0100010001C7
:1005C0000001000100000001000100010000000125
:1005D0000000000100010001000000010000000116
:1005E0000001000100010001000000010001000104
:1005F0000001000100115D01000100010001000186
:1006000000125D0100010001000100010001000D68
:100610005D0100010001000100135D010001000106
:1006200000010001000100000044454255473A2006
:1006300064697361626C65642E0A004445425547E3
:100640003A20656E61626C65642E0A00000000004D
:10065000000000002A2B280000000000000000001D
:100660000000000000000029000000002C1E3420C3
:10067000212224342627252E362D3738271E1F20E9
:100680002122232425263333362E37381F0405062E
:100690000708090A0B0C0D0E0F1011121314151672
:1006A0001718191A1B1C1D2F3130232D3504050670
:1006B0000708090A0B0C0D0E0F1011121314151652
:1006C0001718191A1B1C1D2F3130354C0000000063
:1006D000000000000000000000000000000000001A
:1006E0007E0F00D4FFFFFFC700000078556E6963DE
:1006F0006F646520696E707574206D6F646520731A
:10070000657420746F3A2025750A00556E69636F11
:10071000646520696E707574206D6F646520696E04
:10072000697420746F3A2025750A000A002530325A
:100730005820006B6579626F6172645F7265706FDB
:1007400072743A20000A0025303258006B657962D5
:100750006F6172645F7365745F6C65643A200064F6
:10076000656C5F6B65795F6269743A2063616E27BF
:10077000742064656C3A20253032580A0061646444
:100780005F6B65795F6269743A2063616E277420DC
:100790006164643A20253032580A005B735D004B77
:1007A0006579626F6172642073746172742E0A00DD
:1007B0005B575D005B535D005B525D005B445D0019
:1007C0005B435D0004033000000016034500720027
:1007D00067006F0044006F007800200045005A0059
:1007E000000030035A00530041002000540065000F
:1007F000630068006E006F006C006F006700790096
:1008000020004C00610062007300200049006E006F
:10081000630000000403090409025B00030100A057
:10082000FA0904000001030101000921110100017E
:100830002240000705810308000A090401000103A2
:10084000000000092111010001226D00070582034B
:1008500020000A090402000203000000092111011E
:10086000000122220007058303200001070503037E
:100870002000011201100100000008EDFE07130125
:1008800000010203010631FF0974A1010975150079
:1008900026FF009520750881020976150026FF00C5
:1008A000952075089102C005010980A101850319F1
:1008B000012AB700150126B700950175108100C007
:1008C000050C0901A101850419012AA002150126C0
:1008D000A002950175108100C005010906A10185DE
:1008E00005050719E029E71500250195087501811F
:1008F000020507190029EF1500250195F075018102
:1009000002050819012905950575019102950175E2
:10091000039101C005010906A101050719E029E7B6
:100920001500250195087501810295017508810161
:100930000507190029FF150026FF00950675088197
:1009400000050819012905950575019102950175A4
:10095000039101C011241FBECFEFDAE0DEBFCDBF8F
:1009600012E0A0E0B1E0ECEBF2E502C005900D92E0
:10097000AA32B107D9F723E0AAE2B2E001C01D9282
:10098000AC35B207E1F70E9497230C945C290C94D4
:100990000000FF93EF93E0912A02F0912B02309731
:1009A00009F00995EF91FF910895FC018591803040
:1009B00011F0EFDFFBCF0895FF27E0E230E247FFC1
:1009C0000CC0419597FF09C0EDE260957095809548
:1009D0009095611D711D811D911D27FF02C02195FC
:1009E00030E350E2AA27660F771F881F991FAA1FBE
:1009F000A41710F0A41B63955A95A9F7AA3008F024
:100A0000A95FA05DAF93F39561157105810591050F
:100A100041F7ED3211F4EF93F395F21718F43F9389
:100A2000F395FBCF8F91B5DFFA95E1F70895E99142
:100A3000F9918591803021F0853219F0AADFF9CF44
:100A4000089520E0E89455915532C1F3503311F4E4
:100A5000689455915A3348F4505390F3220F022E64
:100A6000220F220F200D250FF4CF0EF4219589912E
:100A70009991533619F3533729F1533559F1BC0184
:100A800088279927E8945C3621F489919991689494
:100A90005591543639F446EF7EF077FF0DC08FEF55
:100AA0009FEF0AC055374AE039F0583540E121F050
:100AB000523642E009F00895FF93EF937DDFEF9106
:100AC000FF91B7CFFF93EF93FC0181918030B9F391
:100AD00060DFFBCFFF93EF9368DFF1CFDF93CF931E
:100AE000CDB7DEB72596A3DFCF91DF91089580B310
:100AF0008C7080BB81B3836F81BB089584B1807F8C
:100B000084B985B1807F85B98AB1837F8AB98BB179
:100B1000837F8BB93E9846980895CF93E82F87300E
:100B200080F58091000190910101892B09F047C067
:100B3000CE2F64E670E080E40E94A2109093010141
:100B400080930001892BD1F464E670E082E10E9479
:100B5000F9109093010180930001892B79F481E0D1
:100B600090E001C0880FCA95EAF764E670E08095CE
:100B70000E94F9109093010180930001CF910C9491
:100B80004E1190E0FC013797E730F105C0F4EA5AC6
:100B9000FF4F0C940E29209A289811C0219A299869
:100BA0000EC0229A2A980BC0239A2B9808C0529AFA
:100BB0005A9805C0539A5B9802C03E9A4698CF91C6
:100BC0000895CF93873040F5809100019091010105
:100BD000892B59F564E670E081E40E94A21090939D
:100BE000010180930001892B11F0C0E011C084E65F
:100BF00090E00E94291197FF05C090930101809316
:100C00000001F3CFC82FC09510920101109200018E
:100C10000E944E118C2F0AC09FB18FB1807F8695A4
:100C200086959370892B809501C080E0CF910895BF
:100C30000C944C090E948B0790E0909301018093E3
:100C400000010E947E050E947705EDE2F2E0ABE331
:100C5000B2E011921D9282E0EB33F807D1F78EE0FB
:100C60000E94860D0C94D30A0E948B0790E090930B
:100C70000101809300010E947E050E947705EDE24C
:100C8000F2E0119282E0EB33F807D9F70895EF9282
:100C9000FF920F931F93CF93DF9380910001909168
:100CA0000101892BF9F080912C028F5F80932C0237
:100CB000811118C083E891E00E94D5040E948B073F
:100CC00090E09093010180930001892B29F089E63F
:100CD00091E00E94D50406C085E591E00E94D5040C
:100CE0000E94FD060BE312E0C0E0F12C87E0E82E45
:100CF000EC0E8C2F0E948D058E2D0E948D058C2F61
:100D00000E94E105F8019081891719F08083D1E0F4
:100D100001C0D0E08E2D0E94E105F801978189176E
:100D200019F0878381E001C080E0D82BFD2A0E9462
:100D30007E05CF5F0F5F1F4FC730C1F62F2D4EE0EE
:100D40006DE272E08BE392E00E94870D0E94DD0A63
:100D500081E0DF91CF911F910F91FF90EF90089567
:100D6000E82FF0E0E35DFD4F80810895CF92DF92A0
:100D7000EF92FF920F931F93CF93DF938EE391E057
:100D80000E94D5048DE2E82E82E0F82EC0E0D0E08B
:100D900099E3C92E91E0D92E00E311E0DF93CF93C0
:100DA000DF92CF920E946E0586E391E00E94D50407
:100DB000F70181917F0190E00E94C31E9F938F9362
:100DC0001F930F930E946E058EE291E00E94D5045E
:100DD00021968DB79EB708960FB6F8949EBF0FBEAA
:100DE0008DBFCE30D105D1F6DF91CF911F910F91FC
:100DF000FF90EF90DF90CF90089556985E982598D9
:100E00002D9826982E9827982F988FEF90E0909302
:100E100089008093880090938B0080938A00909340
:100E20008D0080938C00259A2D9A2FEF80E792E019
:100E3000215080409040E1F700C00000269A2E9A91
:100E40002FEF80E792E0215080409040E1F700C012
:100E50000000279A2F9A2FEF80E792E021508040E0
:100E60009040E1F700C0000025982D982FEF80E713
:100E700092E0215080409040E1F700C000002698A9
:100E80002E982FEF80E792E0215080409040E1F7CC
:100E900000C0000027982F9856985E9825982D98A6
:100EA00026982E9827982F98089589EA8093800095
:100EB00089E08093810024982C983F988AB18F7C98
:100EC0008AB96E98479A8BB180638BB9769A0E94E3
:100ED000071F6093400370934103809342039093F4
:100EE000430367708FEF689FB00111247595679574
:100EF0007595679577277093890060938800709344
:100F00008B0060938A0070938D0060938C000E9428
:100F1000FD060C94060980E290E090930101809315
:100F200000018091490281110EC00E949C1081E055
:100F3000809349022FEF83ED90E321508040904051
:100F4000E1F700C0000064E670E080E40E94A210B7
:100F50009093010180930001892B09F04EC064E653
:100F600070E080E00E94F9109093010180930001ED
:100F7000892B09F042C064E670E080E00E94F9101D
:100F80009093010180930001892BB9F564E670E02C
:100F90008FE30E94F9109093010180930001892B47
:100FA00061F50E944E1164E670E080E40E94A21098
:100FB0009093010180930001892BF9F464E670E0BD
:100FC0008CE00E94F9109093010180930001892B1D
:100FD000A1F464E670E080E00E94F91090930101B2
:100FE00080930001892B49F464E670E08FE30E944E
:100FF000F91090930101809300010E944E1180919D
:101000000001089510924003109241031092420390
:101010001092430384E08061809340036091400319
:101020007091410380914203909143030E940B1FF2
:101030000C94171FCF9389509D458B30910508F074
:10104000E1C0DB01835A9F4FFC010C940E291296DC
:10105000CC91CC2309F4D7C00E94731FC0E0D3C049
:101060001296CC91CC2309F4CEC068E170E080E008
:1010700090E00E94931CF2CF1296CC91CC23D9F031
:1010800080914C0281110DC081E080934C0284E07C
:101090000E94E81B882311F083EE01C082EE0E94BB
:1010A00057130E94E12090934B0280934A028BE2F7
:1010B0000E945713A8C08BE20E94F913A3C0129696
:1010C000CC91CC2309F49FC080914D0281110DC0B9
:1010D00080910201811102C080E520C085E392E089
:1010E0000E94D00A8CE292E063C088E292E00E9403
:1010F000D00A86E192E00E94D00A82E192E065C0C7
:101100001296CC91CC2309F47EC080914D028111BE
:101110000FC080910201811104C08FE40E94581415
:101120009DCF8EE092E00E94D00A85E092E040C020
:1011300081E092E00E94D00A8EEE91E00E94D00AF7
:101140008AEE91E042C01296CC91CC2309F45BC0A8
:1011500080914D0281110DC080910201811102C068
:1011600082E5DCCF86EE91E00E94D00A8DED91E021
:101170001FC089ED91E00E94D00A8AEC91E00E94A4
:10118000D00A86EC91E021C01296CC91CC23D9F103
:1011900080914D0281110FC080910201811102C026
:1011A00081E5BCCF82EC91E00E94D00A89EB91E00E
:1011B0000E94D00A53CF85EB91E00E94D00A85EAC5
:1011C00091E00E94D00A81EA91E00E94D00A109238
:1011D0004D0244CF1296CC91CC2321F081E0809334
:1011E0004D023CCF10924D020EC01296CC91CC23F2
:1011F00051F081E090910201913009F480E08093F8
:1012000002012CCFC1E08C2FCF91089584E00C9483
:10121000081CCF92DF92EF92FF92CF936B017C017B
:101220000E94611EC82F1F928F938DE991E09F93BA
:101230008F930E946E0556985E9825982D98269853
:101240002E9827982F980F900F900F900F90C330E3
:10125000D8F045E0C701B6010E94D31B882311F0E6
:10126000279A2F9A44E0C701B6010E94D31B882316
:1012700011F0259A2D9A43E0C701B6010E94D31BB5
:10128000882311F0269A2E9AC701B601CF91FF90BC
:10129000EF90DF90CF90089580914C028823A9F0C1
:1012A00080914A0290914B020E94ED208935924034
:1012B00060F084E00E94E81B882311F083EE01C0F7
:1012C00082EE0E94F91310924C0208959C013A9507
:1012D00021153F4138F5DC01AA27B270AC01442743
:1012E00054709C012227387094FF0FC090FF02C0F9
:1012F00080E101C080E0AB2B09F08062452B09F052
:101300008064232B69F080680BC0892F8170AB2B20
:1013100009F08260452B09F08460232B09F0886076
:10132000FB0109940895CF93DF93EC01805E91094E
:10133000089710F0209719F46BE674E102C06EE68E
:1013400077E1CE010E9466098C2FDF91CF910C943A
:101350005713CF93DF93EC010E94F913CE01805E07
:101360009109089710F0209719F462E774E102C020
:1013700065E777E1CE01DF91CF910C946609CF93B9
:10138000DF93EC010E949309CE01DF91CF910C9481
:10139000A90981E008950C941A0808950C94CD09C8
:1013A0001F93CF93DF9300D000D01F92CDB7DEB74D
:1013B00049835A836B833091780289819A813111F4
:1013C00014C0662359F0222349F00E94FF1C182FF5
:1013D000682F89819A810E94A61C03C00E94D21C9A
:1013E000182F69817A81812F04C00E94FF1C6981B6
:1013F0007A810F900F900F900F900F90DF91CF9107
:101400001F910C94700BFC01262F40815181628149
:10141000738184810C94D009CF93DF93EC0160E059
:101420000E94030ABE01DF91CF910C94CE09FF9276
:101430000F931F93CF93DF93E82FF0E0E45BF94F16
:10144000F490C82FC695C695C695D0E0FE01E4522B
:10145000F94F0491877010E0082E02C0159507958A
:101460000A94E2F701701127FE01E453F94FC49189
:10147000D0E002C0D595C7958A95E2F7C170DD2707
:101480000115110519F081EE0E945713209719F0EC
:1014900086EE0E9457138F2D0E945814CD2B19F001
:1014A00086EE0E94F913012B41F081EEDF91CF917E
:1014B0001F910F91FF900C94F913DF91CF911F9121
:1014C0000F91FF900895EF92FF920F931F93CF9388
:1014D000DF938C01F62E8AE0E82EF80184918823B0
:1014E00009F457C0813009F042C0E8012196FE019D
:1014F0008491813031F42196FE0184910E94581428
:1015000039C0823039F4E8012296FE0184910E94AC
:10151000571330C0833039F4E8012296FE018491DC
:101520000E94F91327C0843029F5E8012296FE01B4
:10153000249180E090E030E0205331092A303105D9
:1015400060F4E89EA001E99E500D1124C901840FAA
:10155000951F2196FE012491EECF009759F0EFE9F7
:10156000FFE03197F1F700C000000197F6CF0E942D
:10157000170AE8018E010F5F1F4F8F2D882309F492
:10158000ACCFEFE9FFE03197F1F700C000008150E8
:10159000F5CFDF91CF911F910F91FF90EF900895BC
:1015A00060E00C94630A0E94D61E811102C00E9462
:1015B000731F0E94D20D0C9455070C941806282F07
:1015C0002F7041F0822F90E02A3010F44D9608954C
:1015D0000697089587E290E0089508950C94ED0A27
:1015E00081E008950C94F00ACF93C82F0E94EE0A70
:1015F0008C2F0E94F20ACF91089508950E949217AD
:101600000E94FD0A2FEF84E39CE02150804090402F
:10161000E1F700C000000C9422210F931F93CF9399
:10162000DF93EC0161E00E94030A8C01BE010E947D
:10163000CB09882309F449C0BE01C8010E946F0E7E
:10164000882309F442C0BE01C8010E94FF0E88230E
:10165000E1F1BE01C8010E94400F8823B1F1BE0133
:10166000C8010E946B10882381F18A81882331F19F
:1016700001308CE5180751F00E3D8CE51807D9F0C4
:1016800001151C45D9F40E94FE0A1FC08091180361
:10169000C82FC095C170C0FB80F980931803CC237C
:1016A00029F08BE396E00E94D5040FC089E296E012
:1016B0000E94D5040BC00E94731F07C0CE01DF91AA
:1016C000CF911F910F910C94C909C0E08C2FDF912D
:1016D000CF911F910F91089580E090E008950895B3
:1016E00024E5829FC0011124FC0126E0729FE00DD9
:1016F000F11D1124E60FF11DEE0FFF1FE75CFD4FFA
:10170000859194910895880F991FFC01E451F94F38
:10171000859194910895CF93DF930E94700B0E945E
:10172000AF0CEC01811521E59207E8F5811540E544
:10173000940708F0BCC0883E910500F5803E9105F5
:1017400008F009C1883A910570F4853A910508F0CE
:1017500088C08130910509F4FEC008F4FAC00497EE
:1017600008F0F9C0F6C08F3B910508F482C0803CB8
:10177000910508F4EEC0805C910988C0C11580E332
:10178000D80758F4C11520E2D20708F07DC0C11572
:1017900041E0D40708F0DFC0DCC0C11580E4D80701
:1017A00008F082C077C0811526E5920770F5811593
:1017B00045E5940708F0B1C0C11583E5D80750F49A
:1017C000C11522E5D20708F08DC0DC2FCC27C16FF0
:1017D000D06AC1C0C11544E5D40708F099C0CE0154
:1017E0008370992721E030E002C0220F331F8A95D1
:1017F000E2F78C2F8695869540E2849FC0011124E4
:10180000E901C82BD92BDA68A6C0C1158AE5D8072B
:1018100078F4C11529E5D20708F088C0C11548E55C
:10182000D40708F496C0DC2FCC27C06FD06A93C0D1
:10183000C1158BE5D80708F48CC0C1152CE5D2077B
:1018400008F484C0CE0190568115904208F081C002
:101850008D2F8F710E94430DDD27D0628F71D82BA1
:101860007AC0C55AD0E0CA51DE4FC881D0E0D064FA
:1018700072C0C85AD0E0CC0FDD1FC854DE4F0990AB
:10188000D881C02DD46467C0CE019F700E94830BA5
:10189000EC0161C0CE019927D3FF03C0EC01D86CE5
:1018A0005AC0EC01D06C57C0DF70D06A54C074E0ED
:1018B000969587957A95E1F783709C2F937021E038
:1018C00030E002C0220F331F9A95E2F73C68382BB4
:1018D000CF70C695C69580E2C89FE0011124C22B47
:1018E000D32B39C0CE018370992721E030E002C0AC
:1018F000220F331F8A95E2F78C2F8695869540E25A
:10190000849FC0011124E901C82BD92BDC6823C0B6
:10191000DC2FCC27C46FD06A1EC00E94430D8F718C
:10192000C82FD0E0DC2FCC27D06215C08C2F8F7051
:101930000E94430D94E0D695C7959A95E1F7CF7034
:10194000D0E0DC2FCC27D069C82B05C0DD27D066BE
:1019500002C0C0E0D0E0CE01DF91CF91089582387F
:10196000910569F1B0F48133910509F46DC048F433
:101970008932910509F463C08A32910509F469C07E
:1019800008958533910509F455C089339105B9F05F
:101990000895833E910569F138F4803E9105B1F0D8
:1019A000823E910509F10895863E9105A9F1873E91
:1019B0009105B9F1843E910509F064C023C02091DE
:1019C0004D0320FD4FC021FD4DC0089580914D0372
:1019D00080FD44C080914E0380FF44C080914D0340
:1019E00084FD42C083EE4DC080914D0382FF38C01C
:1019F000F5CF80914D0382FD33C080914E0380FD71
:101A000031C0ECCF80914E0381FF32C080914D03F5
:101A100084FD2AC087EE35C080914D0383FF26C028
:101A2000F5CF80914D0383FD21C080914E0381FD50
:101A30001FC0ECCF80914D0385FD1CC01DC080915F
:101A40004D0385FD19C016C080914D0386FD16C05B
:101A500017C080914D0386FD13C010C089E311C0EB
:101A600082EE0FC080EE0DC080E00BC086EE09C094
:101A700084EE07C089E205C085E303C08AE201C0A5
:101A800081E390E0089590914D0392FF0DC0282FBF
:101A90002871283019F4877F846006C0282F2471AC
:101AA000243011F48B7F886093FF0DC0282F28719C
:101AB000283119F4877E846106C0282F24712431CF
:101AC00011F48B7E886120914E0320FF0DC0382FCA
:101AD0003871383019F4877F816006C0382F317132
:101AE000313011F48E7F886021FF0DC0282F2871BE
:101AF000283119F4877E816106C0282F2171213198
:101B000011F48E7E886194FD877E08950895FF927A
:101B10000F931F93CF93DF938C01F62ED72FC42FF3
:101B2000222349F081E0809350020E94E1209093AB
:101B30004F0280934E02809150028823C1F0809121
:101B40004E0290914F020E94ED20409780F0EF2DC1
:101B5000FD2FD8014C2F50E0CD01801B910B841735
:101B600095071CF48D918193F7CF10925002DF916D
:101B7000CF911F910F91FF900895CF93DF9397FF1F
:101B80000DC0FB012281222349F0EC010E94110EBD
:101B9000CE019F770E94520E0E943B0E81E0DF91A2
:101BA000CF9108958CE090E00E94142990E0A0E08D
:101BB000B0E08093440390934503A0934603B09311
:101BC00047038091180380FF0EC0809144031F9249
:101BD0008F938BE097E09F938F930E946E050F90F9
:101BE0000F900F900F900895609144038CE090E067
:101BF0000C942829809344030E94F40D80911803CB
:101C000080FF0EC0809144031F928F938CEE96E06C
:101C10009F938F930E946E050F900F900F900F90DF
:101C200008950E94A81D809348030E94BB1D8091C7
:101C30004403813071F048F0823081F08430A1F4A7
:101C400086EE0E94581488E10DC082EE0E94571360
:101C50000BC088E193E00E94BF0906C082EE0E949B
:101C6000571387E50E9458148FE39CE90197F1F719
:101C700000C00000089580914403813039F040F0A5
:101C8000823031F0843051F488E206C08CE204C026
:101C900082EE0E94F91302C00E94581480914803FA
:101CA0000C94B81D0F931F93CF93DF938C01CCE05E
:101CB000D0E0C8010C2E02C0969587950A94E2F7F1
:101CC0008F700E94DF0A0E9458142497CC3F8FEF38
:101CD000D80779F7DF91CF911F910F9108950F9356
:101CE0001F93CF93DF93EC018B01FB01828188234B
:101CF00051F00E94A81DCE01815E9C458530910562
:101D000010F40E94FA0DB801CE01DF91CF911F911E
:101D10000F910C94BD0D0F931F93CF93DF93C62F9C
:101D2000D42F122FFC0182818823C9F060935302C3
:101D30000E94E120909352028093510280E28C0F26
:101D4000883008F057C0C77081E001C0880FCA957D
:101D5000EAF7DF91CF911F910F910C946B14809152
:101D60005302681330C080915102909152020E9438
:101D7000ED20883C910538F500E20D0FCD17B9F044
:101D800080E28C0F883040F4C77081E001C0880F7A
:101D9000CA95EAF70E947214083028F581E09D2F59
:101DA000977001C0880F9A95EAF70E946B14812FF3
:101DB0000E9458140830F0F4D77081E001C0880FF9
:101DC000DA95EAF70AC080E28C0F883098F4C77081
:101DD00081E001C0880FCA95EAF7DF91CF911F918A
:101DE0000F910C947214812FDF91CF911F910F915D
:101DF0000C945814DF91CF911F910F9108959C017D
:101E0000CB01233F4CE53407F9F078F4283DFCE59D
:101E10003F07B9F0293D4CE5340711F1273D3C451A
:101E200031F526E241EE61EE1EC0253FFCE53F079D
:101E300099F070F0263F3C45D1F427E245EE66EE7E
:101E400012C027E245EE0EC026E241EE60EE0BC066
:101E500027E245EE64EE07C026E241EE62EE03C0E3
:101E600028E241E065EE0E948B0E80E00895FC01BF
:101E70008281882319F010925302089581E0089519
:101E8000CF93DF93EC01FB018281882309F41FC10A
:101E9000C230FCE5DF0708F41BC1C6319CE5D90759
:101EA00038F09E012A5F3C452930310508F010C109
:101EB0000E94E91E90934E0380934D03C031ECE5E0
:101EC000DE0709F4C3C008F041C0C8308CE5D8076C
:101ED00009F49AC0F0F4C430ECE5DE0709F487C0D9
:101EE00068F4C2308CE5D80709F477C0C330DC450C
:101EF00009F0E3C080914D03826076C0C630ECE506
:101F0000DE0709F46EC008F07BC080914D03886045
:101F10006BC0CC308CE5D80709F485C068F4CA30B2
:101F2000ECE5DE0709F474C008F079C00E9492174E
:101F300080914D03806858C0CE308CE5D80709F4F5
:101F400076C008F07FC080914D038BC0CB3FECE59D
:101F5000DE0709F44FC018F5C3318CE5D80709F442
:101F60007DC078F4C131ECE5DE0709F473C0C231FD
:101F7000DC4509F0A2C00E94921780914D038F7733
:101F800033C0C5318CE5D80709F472C008F486C0A7
:101F9000CA3FDC4509F091C080914E033EC0CF3F5F
:101FA000FCE5DF0709F45FC058F4CD3F9CE5D90795
:101FB00009F444C008F43FC080914E0382602DC0F4
:101FC000C130FDE5DF0709F475C008F45DC0C2301B
:101FD000DD4509F072C080E06EC080914D038160E4
:101FE00003C080914D03806180934D0366C0809152
:101FF0004D0311C080914E03826080934E035DC0FB
:1020000080914D038062F0CF80914D038064ECCFCE
:1020100080914D0388608460E7CF8160EECF80912E
:102020004D038E7FE1CF80914D038D7FDDCF809179
:102030004D03877FD9CF80914E0318C080914E0306
:102040008D7FDBCF80914D038F7ECECF80914D036E
:102050008F7DCACF80914D038F7BC6CF80914D037A
:10206000877F8B7FC1CF80914E038D7F8E7FC5CFC1
:1020700080914D0382FB222720F991E0922790FB6B
:1020800082F990FB83F9B0CF80914E03982F909501
:1020900091708E7F892B90FB81F9AFCF0E949217B0
:1020A00080914D0387FB222720F991E0922790FB36
:1020B00087F99ACF81E00E94751F80914D0390911E
:1020C0004E030E94FA1E0E94921780E001C081E038
:1020D000DF91CF910895CF93DF9386319C4541F5F1
:1020E000EB010E94A81D982F8A8120910301309155
:1020F0000401882379F09A7A81E009F480E08093E2
:102100005402911102C069E201C065E3C9010E9455
:1021100032200AC080915402811102C069E201C0DC
:1021200065E3C9010E943D200E94F91D80E001C0C5
:1021300081E0DF91CF9108951092B9008CE08093F7
:10214000B8000895EF92FF920F931F93CF93DF9300
:10215000182FEB011092BC0084EA8093BC000E940F
:10216000E1207C018091BC0087FD0EC0CF3F8FEF46
:10217000D807C1F30E94E1208E199F098C179D0793
:1021800088F38EEF9FEF2EC08091B900887F883052
:1021900041F08091B900887F803119F08FEF9FEF77
:1021A00021C01093BB0084E88093BC000E94E12012
:1021B0008C018091BC0087FD0CC0CF3F8FEFD8070A
:1021C000C1F30E94E120801B910B8C179D0788F3BF
:1021D000D8CF8091B900887F883111F08034F1F632
:1021E00080E090E0DF91CF911F910F91FF90EF90F1
:1021F00008950F931F93CF93DF93EB018093BB0060
:1022000084E88093BC000E94E1208C018091BC0096
:1022100087FD0EC0CF3F8FEFD807C1F30E94E120AA
:10222000801B910B8C179D0788F38EEF9FEF0CC0DE
:102230002091B900287F81E090E0283211F480E0FD
:1022400090E0919581959109DF91CF911F910F9128
:1022500008950F931F93CF93DF93EC0184E880934D
:10226000BC000E94E1208C018091BC0087FD0EC063
:10227000CF3F8FEFD807C1F30E94E120801B910B65
:102280008C179D0788F38EEF9FEF03C08091BB00F2
:1022900090E0DF91CF911F910F91089584E9809391
:1022A000BC00089590935A02809359020895E091DA
:1022B0005902F0915A02309721F00190F081E02DFF
:1022C000099480E00895EF92FF921F93CF93DF93DC
:1022D000FC01A0915902B0915A02109709F442C032
:1022E00080910F01882341F080914D0387FF04C046
:1022F0008081818385E08083EF011296ED91FC91CE
:102300001397CE0109958091180382FF2BC080FF9F
:1023100004C083E397E00E94D50418E08DE2E82E24
:1023200087E0F82E8091180380FF0BC088811F92F0
:102330008F93FF92EF920E946E050F900F900F9077
:102340000F90115021961111EDCF8091180380FF4D
:1023500009C08BE297E0DF91CF911F91FF90EF9042
:102360000C94D504DF91CF911F91FF90EF900895C9
:1023700020915702309158022817390771F0909335
:10238000580280935702E0915902F0915A02309717
:1023900021F00680F781E02D0994089520915502DF
:1023A000309156022817390771F0909356028093A6
:1023B0005502E0915902F0915A02309721F00084C1
:1023C000F185E02D0994089585B7806885BF85B7AC
:1023D000806885BF089508950C94EB110C94EC115E
:1023E0000C94EB110C94EB110E94E4110E94F0117B
:1023F0000C94EE1181E008950C94FA110E94D820FB
:102400000E941A060E9454210C94F211CF93C82FF7
:102410008091180382FF1EC080FF04C08CE497E007
:102420000E94D5048091180380FF0CC01F92CF93A7
:1024300087E497E09F938F930E946E050F900F9013
:102440000F900F908091180380FF04C085E497E0FF
:102450000E94D5048C2FCF910C94F40AAF92BF92B6
:10246000CF92DF92EF92FF920F931F93CF93DF9360
:10247000CDB7DEB72A970FB6F894DEBF0FBECDBF3B
:102480000E9447060E94FC11811111C08FEF8983C1
:102490008A831B820E94E1208160782F9D838C8338
:1024A00049815A816B818D810E94001340C08CE567
:1024B000A82E82E0B82E00E010E0C02E802F0E94EF
:1024C000B006E82EF501D1905F01D82631F40F5FF8
:1024D0001F4F0E30110589F7D9CF8091180381FD68
:1024E0000E94B60680E0FF24F3949D2D9F21D1F039
:1024F0008E83CF82EF2081E009F480E088870E94FC
:10250000E1208160782F9A8789874E815F81688575
:102510008A850E940013F801E45AFD4F8081F82655
:10252000F08205C08F5FFF0C8630F9F6D0CF0E9495
:10253000571190915B028917B1F00E945711809357
:102540005B022A960FB6F894DEBF0FBECDBFDF91B7
:10255000CF911F910F91FF90EF90DF90CF90BF90A0
:10256000AF900C9406122A960FB6F894DEBF0FBEF9
:10257000CDBFDF91CF911F910F91FF90EF90DF9032
:10258000CF90BF90AF900895DC0111962C911197D8
:102590008C91682F70E041E050E001C0440F8A95B3
:1025A000EAF712968C91129730E0882329F08091F7
:1025B0007A028823E9F006C0F901E659FD4F9081BF
:1025C0009423B1F086E0829FF001839FF00D1124E7
:1025D000E60FF71FEE0FFF1FE05FFE4F8081918136
:1025E0008D939C93F901E659FD4F8081482B06C0DD
:1025F000F901E659FD4F40958081482340830895B5
:10260000CF93DF93CDB7DEB72B970FB6F894DEBF2D
:102610000FBECDBF942F4F83252F588769877A87A8
:102620008B874A855B85452B31F02F3F31F481E064
:102630009F3F19F403C081E001C080E080FD04C029
:10264000CE0107960E94C412DE01119686E0FD01BC
:1026500011928A95E9F785E0FE01379601900D9277
:102660008A95E1F749815A816B817C818D819E81B8
:102670000E944B1A2B960FB6F894DEBF0FBECDBF4B
:10268000DF91CF910895FC01808191810E94411DCD
:1026900092959F70963051F4863F41F080917A0276
:1026A00091E0892780937A02909379020895CF93DD
:1026B000882309F49CC0C82F8238C1F40E945711A6
:1026C00081FD95C069E380910301909104010E940E
:1026D00032200E94F91D2FEF81EE94E021508040BE
:1026E0009040E1F700C0000069E319C0833801F5AC
:1026F0000E94571180FD7BC063E58091030190919A
:1027000004010E9432200E94F91D2FEF81EE94E017
:10271000215080409040E1F700C0000063E58091C7
:102720000301909104010E943D20CF910C94F91D6A
:102730008438C1F40E94571182FD59C067E480912A
:102740000301909104010E9432200E94F91D2FEF95
:1027500081EE94E0215080409040E1F700C00000FD
:1027600067E4DDCF8CEF8C0F813AD0F46C2F809131
:102770000301909104010E94901F882349F06C2F5F
:1027800080910301909104010E943D200E94F91D57
:102790006C2F80910301909104010E943220C5CFDB
:1027A00080E28C0F883048F4C77081E001C0880F48
:1027B000CA95EAF70E94AB1DB8CFEBE5EC0FE3300A
:1027C00040F4F0E0E95EFD4F808190E0CF910C9401
:1027D000B811C85AC73158F4EC2FF0E0EE0FFF1FC4
:1027E000E751FE4F80819181CF910C94CE11CF9112
:1027F0000895882309F45BC0682F823879F40E9419
:10280000571181FF54C069E3809103019091040145
:102810000E9432200E94F91D69E310C08338B1F490
:102820000E94571180FF43C063E58091030190919E
:1028300004010E9432200E94F91D63E5809103018A
:10284000909104010E943D200C94F91D843879F484
:102850000E94571182FF2BC067E480910301909181
:1028600004010E9432200E94F91D67E4E7CF8CEF3B
:10287000860F813A18F380E2860F883048F467703B
:1028800081E001C0880F6A95EAF70E94B11DDCCF94
:102890008BE5860F833020F480E090E00C94B81133
:1028A000685A673120F480E090E00C94CE110895CE
:1028B000CF93C82F0E945713C93349F42FEF87EEE7
:1028C00093E0215080409040E1F700C000008C2F41
:1028D000CF910C94F913882321F00E94AB1D0C9426
:1028E000F91D0895882321F00E94B11D0C94F91D53
:1028F00008956F927F928F929F92BF92CF92DF92B4
:10290000EF92FF920F931F93CF93DF936C01C62F2B
:10291000172FFC01058102950F70D281D1110E9401
:10292000CB1D0E94A11D8823B9F0DD23A9F0812FC2
:10293000807F803441F090E29C0F983068F08036C0
:1029400011F4C63F49F082E00E94431E0E94A11D7F
:1029500091E0B82EB92601C0B12CE12EE2949FE09F
:10296000E9228E2D90E0FC01E859FF4F0C940E29CE
:10297000012F0F70812F807F11F00295007FDD23E2
:1029800099F0002309F498C180E28C0F883010F090
:10299000C11104C0802F0E94AB1D03C0802F0E9474
:1029A000BE1D0E94F91D88C18C2F0E94F9130023BF
:1029B00009F439C280E28C0F883010F0C11104C0D4
:1029C000802F0E94B11D03C0802F0E94C41D0E9451
:1029D000F91D29C2912F9F70812F807FF92E80329F
:1029E00019F0F29480EFF822CC2319F0C130C9F02D
:1029F00021C0DD2371F0002341F0013031F40E9449
:102A0000DE1D8F290E94E61D09C20E94DE1D8F294E
:102A100016C0002319F0013009F405C20E94EF1D11
:102A20001EC0DD2321F0023008F0F8C107C00111FB
:102A3000FAC115C0DD2331F001113EC18F2D0E9476
:102A40006B14ECC1002359F0C93309F044C1FFEF06
:102A500027EE83E0F15020408040E1F73AC18F2D0E
:102A60000E947214E0C1812F86958695837019F0BB
:102A7000813071F0A2C1DD2331F08C2F912F937042
:102A80000E94B811A4C180E090E00E94B811A6C1D4
:102A9000DD2331F08C2F912F93700E94CE1197C1BE
:102AA00080E090E00E94CE1199C1812F837009F0DF
:102AB00048C0D11186C12C2F229526952770220F50
:102AC000220F6C2F6F70862F90E0A0E0B0E0022EF6
:102AD00004C0880F991FAA1FBB1F0A94D2F7C4FF16
:102AE00010C04FE050E060E070E004C0440F551F9C
:102AF000661F771F2A95D2F740955095609570957F
:102B000003C040E050E0BA01212F2695269523709E
:102B10003A014B01682A792A8A2A9B2AC401B30107
:102B2000223049F058F4213019F00E949C1B49C111
:102B30000E948A1B46C10E94AE1B43C10E94881B93
:102B400040C1DD2319F0812F817001C08695882353
:102B500009F437C12C2F229526952770220F220FBA
:102B60006C2F6F70862F90E0A0E0B0E0022E04C0C2
:102B7000880F991FAA1FBB1F0A94D2F7C4FF10C069
:102B80004FE050E060E070E004C0440F551F661F46
:102B9000771F2A95D2F7409550956095709503C0A0
:102BA00040E050E0BA01212F2695269523703A0186
:102BB0004B01682A792A8A2A9B2AC401B301223050
:102BC00049F058F4213019F00E94811CFAC00E948B
:102BD0006F1CF7C00E94931CF4C00E94C21BF1C07E
:102BE000012F0F70DD2339F0802F0E94081C8C2FDD
:102BF0000E946B14E6C08C2F0E947214802F0E94DA
:102C0000291CDFC0C23F61F128F4C03F41F0C13F41
:102C1000B9F01DC0C33F71F1C43FB1F118C0DD234D
:102C200039F00111FBC0812F8F710E944E1CF6C03C
:102C3000023008F0F8C0812F8F710E944E1CF3C043
:102C4000DD2349F0812F8F710E94081CE7C0D1114C
:102C500031C0011135C0812F8F710E94291CE3C042
:102C6000812F8F71DD2319F00E94291CD7C00E948B
:102C7000081CD9C0DD2329F0812F8F710E94F31B1E
:102C8000CDC00E94CE1BCFC0DD2351F0012F0F71AC
:102C9000802F0E94081C63E0802F0E942E1EBEC061
:102CA00081E00E94431E023008F4BDC082E00E9411
:102CB000431EB9C0002331F28C2F0E945713AEC0BF
:102CC000C93349F42FEF87EE93E0215080409040C4
:102CD000E1F700C000008C2F0E94F913A4C0412F1F
:102CE0004F706C2FC6010E946C0B0E94F91A6DC0C8
:102CF0008C2F90E0FC01E05FF109E730F10578F5F9
:102D0000E858FF4F0C940E29DD2309F450C0909130
:102D10007A0281E0892705C0D0937A0248C081E019
:102D20008D2780937A0243C0D11141C081E0F9CF51
:102D3000D1113DC010927A023AC0DD2319F00E94F1
:102D4000791D35C00E94851D32C0DD2329F0809198
:102D500079028823E1F229C00023C9F228C08091BA
:102D600079020023C1F0882341F090917A0281E03A
:102D7000892780937A02109279028C2FDD2319F033
:102D80000E94571314C00E94F91386E0F6011192B5
:102D90008A95E9F70CC0882351F0D11108C09091B1
:102DA0007A0281E0892780937A0210927902412F7A
:102DB0004F706C2FC6010E946F0B88EF8E0D843010
:102DC00020F40E9457110E94F40ADD2339F0107F8D
:102DD000103611F4C63F11F00E94931DBB2041F143
:102DE0000E94751D80FD24C0F60112820E946F1D95
:102DF0000E94081CC6010E943E170E946F1DDF91B1
:102E0000CF911F910F91FF90EF90DF90CF90BF90E7
:102E10009F908F907F906F900C94291C88EF8E0D5F
:102E20008430A8F6CECF88EF8E0D8430B8F6C9CFA7
:102E3000DF91CF911F910F91FF90EF90DF90CF9096
:102E4000BF909F908F907F906F9008950F931F93E6
:102E5000CF93DF93EC01688179818A810E944C1DB8
:102E60008C010E94A51C0E94761BB801CE010E9415
:102E70007914DF91CF911F910F910895CF93DF9334
:102E8000EC01988189812B813C81232B31F08F3F8C
:102E900031F481E09F3F19F403C081E001C080E07C
:102EA00080FD19C0CE010E940D0B81110CC00E9443
:102EB000A11D882381F08A81882369F082E0DF9157
:102EC000CF910C94431ECE010E942617CE01DF91B4
:102ED000CF910C940C0ADF91CF910895882321F0B3
:102EE0000E94BE1D0C94F91D0895882321F00E94B4
:102EF000C41D0C94F91D08950E94CB1D0E94DB1D7A
:102F00000E94F91D80E090E00E94B81180E090E0FE
:102F10000C94CE1180910301909104010E944820ED
:102F20000C947C170E94BB1D0C948A17E92FE29524
:102F3000EF704E2F50E0FA013297EE30F105B0F409
:102F4000E158FF4F0C940E29803F91F018F4883E11
:102F500068F40EC0843F51F40BC0883E48F0813FB6
:102F600029F406C093FB882780F9089580E008952E
:102F700081E008950E94411D0E9496170895CF9305
:102F8000DF9300D000D01F92CDB7DEB70F900F9027
:102F90000F900F900F90DF91CF910895CF93DF9313
:102FA00000D000D000D0CDB7DEB726960FB6F8948B
:102FB000DEBF0FBECDBFDF91CF9108951F93CF939A
:102FC000DF93C0917B0216E080917C02C81799F0D4
:102FD000D0E01C9FF0011D9FF00D1124E358FD4F20
:102FE0004081518162817381848195810E94CE17D5
:102FF0002196C770E9CFDF91CF911F91089540913D
:10300000AD025091AE026091AF027091B00280911A
:10301000B1029091B2020C94CE170F931F93CF93ED
:10302000DF938091B20282958F7009F05DC080912C
:10303000AF02882309F458C080917B0210917C0272
:103040006091AD027091AE02C091B002D091B10218
:1030500091E06F3F09F090E0292F06E0811709F415
:1030600043C0209721F07F3F21F030E003C031E0E2
:1030700001C0322F90E030FD34C0089FF001099F5D
:10308000F00D1124DF01A358BD4F11963C9111970B
:10309000371327C03C91361324C012963C911297E7
:1030A00031111FC013964D915C9114974C1B5D0B11
:1030B000483C5105B0F48091B2028F7080618093DA
:1030C000B202EE57FD4F80818F70806180838DEA60
:1030D00092E00E943E17DF91CF911F910F910C94C7
:1030E000DE1701968770BACFDF91CF911F910F91B4
:1030F00008959F92AF92BF92CF92DF92EF92FF928C
:103100000F931F93CF93DF93CDB7DEB761970FB6C1
:10311000F894DEBF0FBECDBF8C0185E0F801DE0163
:103120001D9601900D928A95E1F7F8014081518139
:10313000E2809091AD026091AE022091B002309198
:10314000B1022115310531F06F3F31F481E09F3F2D
:1031500019F403C081E001C080E0F82FF1709F2EC8
:1031600080FD46C1F801A380B4808DEAC82E82E0BC
:10317000D82EF090AF02F501E21BF30BFF2009F40B
:10318000DFC08091B202E83CF10508F09BC0282F17
:10319000207F09F052C0561313C0491311C0FE2CF2
:1031A000E1100EC08F7080618093B2020E94FF1701
:1031B000C6010E943E178091B202F801858358C172
:1031C000AB2831F05F3F31F481E04F3F19F403C089
:1031D00081E001C080E080FD03C081E08E2502C057
:1031E00080E090E0F82FF170FF2E80FF1CC08091EE
:1031F0007B0220917C0236E0821709F417C190E02F
:10320000389FF001399FF00D1124E358FD4F618183
:10321000561306C06081461303C06281E61203C0E4
:1032200001968770E9CFFE2CEE2009F421C1809130
:10323000B20281608093B2025AC0561306C049138D
:1032400004C0E11002C0F8019FC04D875E878D85E4
:103250009E850E94BA17882379F1EE2069F12091AA
:10326000B202822F82958F7090E0029774F0809165
:10327000AD029091AE0298878F831986BB86AA868D
:103280002C87CE0107960E943E1786E0F801ADEA32
:10329000B2E001900D928A95E1F70E940D180E940C
:1032A000FF170DC0561729F14D875E878D859E85C6
:1032B0000E94BA1781112CC0C8010E943E17FF243A
:1032C000F394D6C0282F207F69F77A2DB98AA88A6F
:1032D0006E2D89890E94BF178DEA92E00E943E17E9
:1032E00086E0F60111928A95E9F70E94FF17F12C0A
:1032F000BFC04913D9CFE110D7CFF8018583C801EA
:103300000E943E1786E0F60111928A95E9F7B0C057
:10331000EE2091F22091B202822F82958F7090E080
:1033200002970CF4B2CF8091AD029091AE029A83D5
:1033300089831B82BD82AC822E83CE010196A3CFEE
:10334000E83CF10508F047C0FE2CEE2009F4B4CFAC
:10335000561330C049132EC02091B20220FD21C067
:10336000822F82958F70482F50E041155105C9F08A
:10337000F80125834F30510541F08F5F982F9295CA
:10338000907F822F8F70892B8583C8010E943E1702
:1033900086E0F801ADEAB2E001900D928A95E1F77E
:1033A00042C086E0F801ADEAB2E001900D928A9544
:1033B000E1F75EC04D875E878D859E850E94BA17B6
:1033C000811163CF8091B20281608093B202C80103
:1033D0000E943E174DC07A2DB98AA88A6E2D898920
:1033E0000E94BF1786E0F60111928A95E9F71BC08B
:1033F000EE2009F461CF4D875E878D859E850E9402
:10340000BA17F82E882309F457CF86E0F801ADEA01
:10341000B2E001900D928A95E1F78DEA92E00E9468
:1034200043130E940D180E94FF1722C04D875E872C
:103430008D859E850E94411D292F22952F70223057
:1034400028F49F7039F0811105C00BC0243028F496
:103450009F7049F4805E883020F0C8010E943E17BA
:103460009F2CF92C05C0F8019581907F99F7F9CF31
:103470008F2D61960FB6F894DEBF0FBECDBFDF91E2
:10348000CF911F910F91FF90EF90DF90CF90BF9061
:10349000AF909F9008951F93CF93DF93CDB7DEB782
:1034A0002C970FB6F894DEBF0FBECDBF4F83588761
:1034B00069877A878B879C87CE0107960E94791847
:1034C0008823D1F09F8188852A853B85232B31F085
:1034D0008F3F31F481E09F3F19F403C081E001C0C8
:1034E00080E080FD47C04F81588569857A858B854E
:1034F0009C850E94CE173EC086E0FE013796DE0115
:10350000119601900D928A95E1F7FF81E8856A8511
:103510007B856115710531F0EF3F31F481E0FF3FAC
:1035200019F403C081E001C080E080FD23C0209138
:103530007C0230E0C90101968770992740917B0297
:1035400050E084179507F1F1F983EA837D836C835A
:1035500096E0929FD001939FB00D1124A358BD4FC8
:10356000FE01319601900D929A95E1F780937C02CD
:103570000E94DE1716E080917B0290917C028917F1
:1035800071F1189FC001112483589D4F0E94791832
:10359000882329F1E0917B021E9FF0011124E3585A
:1035A000FD4F4081518162817381848195810E94A8
:1035B000CE1780917B0290E00196877099278093C7
:1035C0007B02D9CF0E94921710927C0210927B024C
:1035D000EDEAF2E086E0DF011D928A95E9F72C968C
:1035E0000FB6F894DEBF0FBECDBFDF91CF911F9114
:1035F0000895EF92FF920F931F93CF93DF938C0167
:10360000892B09F46CC0F12CEE24E394E801219697
:10361000F8018491843740F4843008F051C081303F
:1036200081F0823019F15BC0853709F444C0A8F1FC
:103630009CE7980F903708F052C08F770E94F913DB
:1036400041C00E5F1F4FFE01849190E2980F9830A9
:1036500050F48770FE2D01C0FF0F8A95EAF78F2F77
:103660000E94CE1D14C00E9457132DC00E5F1F4F25
:10367000FE01849190E2980F983060F48770FE2DDF
:1036800001C0FF0F8A95EAF78F2F0E94D41D0E9478
:10369000F91D19C00E94F91316C00E5F1F4FFE01DD
:1036A000C491CC2381F08FE99FE00197F1F700C02E
:1036B0000000C150F6CF0E5F1F4FFE01F49003C013
:1036C0000E9457138E018F2D882309F49FCFEFE9B5
:1036D000FFE03197F1F700C000008150F5CFDF9196
:1036E000CF911F910F91FF90EF9008950895089545
:1036F0000C94771B0C94781B0E947A1B6093EE024B
:103700007093EF028093F0029093F1020C947C1777
:103710000C947C1B0F931F930091EE021091EF020B
:103720002091F0023091F102602B712B822B932BB0
:103730001F910F910C947C1B0F931F930091EE022D
:103740001091EF022091F0023091F1026023712379
:10375000822393231F910F910C947C1B0F931F9333
:103760000091EE021091EF022091F0023091F102EF
:1037700060277127822793271F910F910C947C1B40
:103780000C9409090E94C01B6093EA027093EB023B
:103790008093EC029093ED020C947C1760E070E053
:1037A000CB010C94C21B611571058105910529F4AB
:1037B00081E0442361F080E00895DC01CB0104C086
:1037C000B695A795979587954A95D2F781700895F4
:1037D000482F6091EA027091EB028091EC02909187
:1037E000ED020C94D31B0F931F9341E050E060E077
:1037F00070E08A019B0104C0000F111F221F331FBC
:103800008A95D2F7C901B8011F910F910C94C21B80
:103810000F931F9341E050E060E070E004C0440F5C
:10382000551F661F771F8A95D2F78091EA02909103
:10383000EB02A091EC02B091ED028A019B01082BF2
:10384000192B2A2B3B2BC901B8011F910F910C9406
:10385000C21B0F931F9341E050E060E070E004C092
:10386000440F551F661F771F8A95D2F740955095D4
:10387000609570958091EA029091EB02A091EC0224
:10388000B091ED028A019B01082319232A233B23CF
:10389000C901B8011F910F910C94C21B0F931F9384
:1038A00041E050E060E070E004C0440F551F661F27
:1038B000771F8A95D2F78091EA029091EB02A0914E
:1038C000EC02B091ED028A019B01082719272A27F3
:1038D0003B27C901B8011F910F910C94C21B0F9394
:1038E0001F930091EA021091EB022091EC023091BB
:1038F000ED02602B712B822B932B1F910F910C9457
:10390000C21B0F931F930091EA021091EB022091CA
:10391000EC023091ED0260237123822393231F91E7
:103920000F910C94C21B0F931F930091EA02109108
:10393000EB022091EC023091ED0260277127822783
:1039400093271F910F910C94C21B0895292F220FCA
:10395000920F990F890FE82FE695E695E695877007
:1039600051E001C0550F8A95EAF785E0E89FF00124
:103970001124ED54FD4F20E030E070E04081CB0198
:10398000022E02C0969587950A94E2F78170819580
:1039900084278523842781932F5F3F4F253031056E
:1039A00069F70895292F220F920F990F890F682F19
:1039B000669566956695982F977085E0689FB0012B
:1039C000112440E050E080E0FB01E40FF51FED54CE
:1039D000FD4F208130E0092E02C0369527950A94CC
:1039E000E2F721703327042E01C0220F0A94EAF770
:1039F000822B4F5F5F4F4530510531F70895BF92DD
:103A0000CF92DF92EF92FF920F931F93CF93DF93AA
:103A10008C01C090EA02D090EB02E090EC02F090B2
:103A2000ED028091EE029091EF02A091F002B09130
:103A3000F102C82AD92AEA2AFB2ACFE1D0E0D7012D
:103A4000C6010C2E04C0B695A795979587950A9444
:103A5000D2F780FD04C0219790F7B12C07C0BC2E8F
:103A6000B8018C2F0E948B0B0197A9F38B2DDF914E
:103A7000CF911F910F91FF90EF90DF90CF90BF906B
:103A80000895CF93DF93EC010E94FF1CBE010E94BA
:103A90008B0BDF91CF9108951F93CF93DF93EB01B1
:103AA00090917802992321F0CB010E94411D13C00F
:103AB000882349F0CB010E94FF1C182F682FCE01EC
:103AC0000E94A61C04C0CB010E94D21C182FBE016C
:103AD000812F0E948B0BDF91CF911F9108958091D0
:103AE000F30285958595859508958091F3028770F9
:103AF000089582E08093F20281E080937A02089533
:103B00001092F20210927A0208958091F2028230AD
:103B100019F481E08093F2028091F202833011F473
:103B20000C94801D08958091F202823019F483E094
:103B30008093F2028091F202813011F40C94801D86
:103B400008959091F302977081E009F480E0089560
:103B500080911703089590911703892B8093170381
:103B600008958095909117038923809317030895F2
:103B700080931703089510921703089590911603E8
:103B8000892B8093160308958095909116038923BD
:103B900080931603089510921603089590911503CB
:103BA000892B80931503089580959091150389239F
:103BB0008093150308951092150308958091F402DF
:103BC000089508950C94E11D0C94E21D9091F40267
:103BD000981721F08093F4020C94E41D08958091CD
:103BE000F402882329F01092F40280E00C94E41D82
:103BF0000895E0910301F0910401809117038083FF
:103C0000E0910301F0910401908180911603892BCA
:103C10008083E0910301F09104019081809115036C
:103C2000892B80838091F402882381F0E091030145
:103C3000F09104019081892B808380910301909100
:103C400004010E947A1F81110E94EF1D80910301DF
:103C5000909104010C9463110C94E11D98E0899FEC
:103C600090011124262B2093F3020E94081C8091BE
:103C7000F3028595859585950C942C1E1092F30280
:103C800080E00C942C1E2091F30280958223809377
:103C9000F302982F977079F430E0482F082E000C2B
:103CA000550B2417350739F08595859585950E9424
:103CB000291C0C943E1E089590932B0280932A0297
:103CC0000895CF92DF92EF92FF926C01EE24FF24D1
:103CD000C114D104E104F10421F0C701B60120E1CF
:103CE00001C020E0C72ED82EE92EFF24C114D10434
:103CF000E104F10419F0285FC701B6016B017C01F2
:103D000054E0F694E794D794C7945A95D1F7C11428
:103D1000D104E104F10419F02C5FC701B6016B0175
:103D20007C0142E0F694E794D794C7944A95D1F782
:103D3000C114D104E104F10419F02E5FC701B601EA
:103D4000DC01CB01B695A79597958795892B8A2B92
:103D50008B2B09F02F5F822FFF90EF90DF90CF9099
:103D600008958295982F937344E0949F90011124B5
:103D70008C7C86958695282B822F8575880F2A7ACC
:103D80002695822B0895CF93DF93D92F0E94B11EE1
:103D9000C82F8D2F0E94B11E2C2F30E0322F2227EA
:103DA000A901482BCA01DF91CF91089580E090E0EE
:103DB0000E94222921E08C3E9E4F09F020E0822FB4
:103DC000089582E090E00C94142983E090E00C9434
:103DD0001429CF9384E090E00E941429C82F81E237
:103DE00090E00E9414292C2F30E0A901582BCA0121
:103DF000CF910895CF93C92F682F84E090E00E945F
:103E000028296C2F81E290E0CF910C9428298FE033
:103E100090E00C941C29AB01BC018FE090E00C9465
:103E20003A29AB01BC0183E190E00C943A2960E0AF
:103E300070E0CB010C94111F6CEE7EEF80E090E0FF
:103E40000E94462960E082E090E00E94282960E01C
:103E500083E090E00E9428291092EE021092EF0277
:103E60001092F0021092F10260E084E090E00E9473
:103E7000282960E081E290E00E94282960E085E046
:103E800090E00E94282960E086E090E00E942829C6
:103E90006FEF87E090E00E94282940E050E0BA01EF
:103EA00088E090E00E943A2960E08DE090E00E9476
:103EB000282940E050E0BA0188E190E00E943A29C8
:103EC00060E087E190E00E94282940E050E0BA01DC
:103ED0008CE190E00E943A2960E080E290E00E944C
:103EE00028290C9402080C941C1F682F8EE090E087
:103EF0000C942829FC01329680910F01882331F01F
:103F000080914D0387FF02C09EE101C096E080E0F2
:103F1000915028F021912223D9F38F5FF9CF089592
:103F2000662351F120910F012223E9F020914D03E6
:103F300027FF19C0462F4695469546954E31E0F429
:103F4000677021E030E002C0220F331F6A95E2F76C
:103F5000FC01E40FF11D828190E02823392381E0E8
:103F6000232B69F409C0FC0132960896219162174F
:103F700029F0E817F907D1F780E0089581E0089566
:103F80009C01FC0132969FEF80E04191461789F039
:103F90009F3F19F4411101C0982F8F5F8630A9F718
:103FA0009F3F39F0F901E90FF11D97FDFA95628302
:103FB000089508959C012A5F3F4FFC0142814613FA
:103FC00001C01282019682179307B9F70895262F30
:103FD0002695269526952E3170F4FC01E20FF11DF1
:103FE000677021E030E001C0220F6A95EAF7828114
:103FF000282B228308958091180380FF0CC01F9204
:104000006F938DE797E09F938F930E946E050F90BB
:104010000F900F900F900895262F269526952695A0
:104020002E3178F4FC01E20FF11D677021E030E0E1
:1040300001C0220F6A95EAF7209582812823228306
:1040400008958091180380FF0CC01F926F938FE535
:1040500097E09F938F930E946E050F900F900F90A3
:104060000F90089520910F01222329F020914D03F4
:1040700027FD0C94E71F0C94C01F20910F012223F1
:1040800029F020914D0327FD0C940C200C94DA1F8D
:1040900020910F01FC013296222331F080914D03D3
:1040A00087FF02C08EE101C086E0DF011D928A9584
:1040B000E9F7089508950C945A20CF930E9434068E
:1040C0000E9447060E945B20C0E08C2F0E94B00631
:1040D000811104C0CF5FCE30C1F701C081E0CF9124
:1040E00008950C945A200C9471200E9473208091A2
:1040F0005303843049F11092190320E488E190E0E1
:104100000FB6F894A895809360000FBE20936000CE
:1041100080E00E94F40A0E94732083B7817F84604C
:1041200083BF83B7816083BF7894889583B78E7F80
:1041300083BF0FB6F894A895809160008861809342
:104140006000109260000FBE08950C945A200E94E7
:1041500092170E9457110E94F40A0C94A5201F92F6
:104160000F920FB60F9211248F939F93AF93BF932B
:1041700080911903811113C08091490390914A03E2
:10418000A0914B03B0914C034196A11DB11D8093AA
:10419000490390934A03A0934B03B0934C03BF9100
:1041A000AF919F918F910F900FBE0F901F90189518
:1041B00082E084BD93E095BD9AEF97BD80936E0039
:1041C00008952FB7F8948091490390914A03A091E4
:1041D0004B03B0914C032FBF08959C014FB7F89447
:1041E0008091490390914A03A0914B03B0914C03F5
:1041F0004FBF821B930B089578941F920F920FB6B6
:104200000F9211248F939F93AF93BF938091490393
:1042100090914A03A0914B03B0914C030196A11DCC
:10422000B11D8093490390934A03A0934B03B0932D
:104230004C03BF91AF919F918F910F900FBE0F9044
:104240001F901895F89481E08093E00080E28093BD
:10425000D800E9ECF0E010828FE19EE40197F1F7DD
:1042600000C000001DBA109268001CBC10BE1FBA2E
:1042700010927A0010926E0010926F0010927100EE
:10428000109272001082ECEBF0E0108214B817B8B4
:104290001AB81DB810BA108215B818B81BB81EB8D5
:1042A00011BA0C94003F08950E94D61E811102C0DD
:1042B0000E94731F0E94E11E809318030E94E91E52
:1042C00090934E0380934D030E94E51E682F70E08B
:1042D00080E090E00C94881B80913D030895089540
:1042E0009FB7F89410921C039FBF90915303943092
:1042F00009F057C09091E9009F703091EC00232F96
:10430000217030FD20E8922B23E02093E9002091DA
:10431000EB0020FF43C02091EE0027FF3FC020911B
:104320001A03222321F02091E80025FF37C01092C4
:104330001A0326E03091E80035FD15C03091530393
:10434000343061F53091EB0035FD28C0215021F467
:1043500081E080931A0322C0EFE9FFE03197F1F783
:1043600000C00000E7CF8093F1008091E80085FD58
:104370000AC08091E80080FFFCCF8091E8008E7732
:104380008093E80006C08FB7F89421E020931C03C7
:104390008FBF9F709093E90080E008959F70909385
:1043A000E9008FEF0895CF93DF9300D01F92CDB730
:1043B000DEB790915303943019F589837B836A8328
:1043C00082E08093E9008FEF9091E800815095FDA5
:1043D00006C095ED9A95F1F700008111F5CF809117
:1043E000E80085FF0DC040E050E063E070E0CE01E2
:1043F00001960E9465248091E8008E778093E80002
:104400000F900F900F90DF91CF910895CF93DF938E
:10441000EC010E944824823011F0843031F4BE0156
:1044200084E0DF91CF910C94D321DF91CF91089557
:10443000BC0183E00C94D321CF93DF93EC010E9465
:104440004824823011F08430D9F580910F018823FF
:1044500039F080914D0387FF03C060E282E002C023
:1044600068E081E08093E9008FEF9091E80081504F
:1044700095FD06C095ED9A95F1F700008111F5CFF5
:104480008091E80085FF1CC080910F01811105C05B
:1044900040E050E068E070E003C070E040E050E0D1
:1044A000CE010E9465248091E8008E778093E80019
:1044B00080E2FE01ADE1B3E001900D928A95E1F753
:1044C000DF91CF91089580EC97E00E94D504809110
:1044D0005203811109C00E94F6250E945326809143
:1044E000E20084608093E20008958CEB97E00E94E4
:1044F000D50410925203089588EB97E00C94D504EC
:1045000084EB97E00C94D50480EB97E00E94D504EF
:104510000C94A72020911B032F5F822F62E30E943F
:104520000229992319F020931B03089510921B036D
:1045300080911C03882371F180915303843041F5ED
:104540008091E9008F702091EC00922F917020FDF6
:1045500090E8892B93E09093E9009091EB0090FF15
:1045600014C09091EE0097FF10C09091E80095FF65
:1045700003C01092F100F9CF9091E80090FF05C0C0
:104580009091E8009E779093E8008F708093E90007
:1045900010921C03089542E061EC81E00E946F25B7
:1045A00042E261EC82E00E946F2542E261EC83E02E
:1045B0000C946F2580915503833009F460C030F46A
:1045C000813071F0823009F499C008958A3009F47D
:1045D00085C08B3009F46BC0893009F0A7C020C0BA
:1045E00080915403813A09F0A1C08091E800877F4F
:1045F0008093E8008091580390915903892B21F40E
:1046000060E28DE193E003C060E080E090E070E064
:104610000E94B0248091E8008B778093E800089591
:1046200080915403813209F081C0809158039091A8
:104630005903029708F07AC08091E800877F809341
:10464000E8008091E80082FD05C08091530381114C
:10465000F8CF6CC02091F3008091F20090E0922B93
:10466000029729F48091F1008B7F813021F48091B1
:10467000F10080933D038091E8008B7753C08091D7
:104680005403813A09F052C0809158039091590324
:10469000892B09F04BC08091E800877F8093E80068
:1046A0008091E80080FFFCCF80910F0136C080919F
:1046B00054038132D9F58091580390915903892B85
:1046C000A9F58091E800877F8093E8000E94A425E7
:1046D0008091560380930F010C949217809154039C
:1046E000813221F58091E800877F8093E8000E9465
:1046F000A4258091570380933E030895809154032D
:10470000813AA1F48091E800877F8093E80080914E
:10471000E80080FFFCCF80913E038093F100809100
:10472000E8008E778093E8000C94A425089584B760
:10473000877F84BF0FB6F894A89580916000886148
:1047400080936000109260000FBE90E080E80FB68A
:10475000F89480936100909361000FBE0E94F41161
:104760000E94F6250E9453268091E2008460809387
:10477000E20080E791E20E945C1E78940E94E728A4
:104780000E94FE1185E091E00E9452118FE997E0AE
:104790000E94D50480915303853089F48BE997E01A
:1047A0000E94D5040E94752080915103882391F3C3
:1047B0000E945D20882371F30E944F24EBCF0E945A
:1047C0002E12E8CF0C94E423292F33272330310510
:1047D000C9F060F42130310581F02230310509F053
:1047E00047C08BE590E028E138E046C02132310532
:1047F00011F12232310561F13BC082E190E023E703
:1048000038E03AC099278130910561F040F082305C
:10481000910559F0039761F5E4ECF7E008C0E4E195
:10482000F8E005C0E2EEF7E002C0EAECF7E08491C0
:1048300090E09F0121C063307105D0F4660F771FAF
:10484000FB01ED5DFD4F2081318189E090E014C0D6
:104850006330710568F4FB01EE0FFF1FE35EFD4F4F
:1048600020813181FB01E65EFD4F808190E004C034
:1048700080E090E020E030E0FA0131832083089569
:1048800080915303843011F081E0089582E008950F
:1048900080913F03811102C00C944024089580E16F
:1048A00089BD82E189BD09B400FEFDCF8091D800A9
:1048B0008F7D8093D8008091E00082608093E0003B
:1048C0008091E00081FDFCCF0895CF92DF92EF92BE
:1048D000FF920F931F93CF93DF93EC018B017A012B
:1048E0000E94C325811133C0E114F10439F0F701AE
:1048F00080819181081B190BC80FD91FC12CD12CA5
:104900000115110519F18091E80085FD16C080910F
:10491000E8008E778093E800E114F10449F0F70194
:1049200080819181C80ED91ED182C08285E00FC0DE
:104930000E94C325882321F30AC089918093F10046
:1049400001501109FFEFCF1ADF0ADACF80E0DF91C3
:10495000CF911F910F91FF90EF90DF90CF9008952E
:1049600020915A0330915B032617370748F06115F1
:10497000710539F42091E8002E772093E80001C0FA
:10498000B901FC0120E06115710579F180915303B3
:104990008823F1F18530F1F18091E80083FD3CC07E
:1049A0008091E80082FD2EC08091E80080FFEBCF6F
:1049B0002091F3008091F20090E0922B6115710537
:1049C00051F08830910538F421912093F100615025
:1049D00071090196F3CF21E0089709F020E080915A
:1049E000E8008E778093E800CECF2111CFCF0AC0A8
:1049F00080915303882361F0853061F08091E80055
:104A000083FD0AC08091E80082FFF2CF80E0089524
:104A100082E0089583E0089581E0089520915A038B
:104A200030915B032617370748F06115710539F49B
:104A30002091E8002E772093E80001C0B901FC0125
:104A400020E06115710591F180915303882309F4E9
:104A500040C0853009F43FC08091E80083FD3DC02F
:104A60008091E80082FD2FC08091E80080FFE9CFAF
:104A70002091F3008091F20090E0922B6115710576
:104A800059F08830910540F424912093F10031963B
:104A9000615071090196F2CF21E0089709F020E0FA
:104AA0008091E8008E778093E800CBCF2111CCCFA6
:104AB0000AC080915303882361F0853061F08091B2
:104AC000E80083FD0AC08091E80082FFF2CF80E019
:104AD000089582E0089583E0089581E00895982F75
:104AE000973068F59093E900981739F07091EC00D1
:104AF0002091ED005091F00003C0242F762F50E05C
:104B000021FD02C09F5FECCF3091EB003E7F3093E0
:104B1000EB003091ED003D7F3093ED003091EB00E4
:104B200031603093EB007093EC002093ED005093D4
:104B3000F0002091EE0027FDE5CF80E008958F7012
:104B40008093E90081E008958091540387FF11C0AC
:104B50008091E80082FD05C0809153038111F8CF58
:104B600011C08091E8008B770BC08091530388239C
:104B700049F08091E80080FFF8CF8091E8008E77BF
:104B80008093E80008952091E4003091E50095E6D7
:104B90004091EC00842F817040FF23C08091E80099
:104BA00080FD1DC080915303882399F0853099F0D2
:104BB0008091EB0085FD11C04091E4005091E5002B
:104BC0002417350729F3915011F09A01E1CF84E0C1
:104BD000089582E0089583E0089581E0089580E0DB
:104BE00008954091E80042FFDDCF08950E946426B9
:104BF0000E946C26E0EEF0E0808181608083E8ED29
:104C0000F0E080818F77808319BCA7EDB0E08C91B4
:104C10008E7F8C9380818F7E8083109252030895C3
:104C20000F931F93CF93DF930E9464260E946C26FC
:104C3000C8EDD0E088818F778883888180688883F9
:104C400088818F7D888319BC1092530310924F0383
:104C5000109251031092500300EE10E0F801808191
:104C60008B7F808388818160888342E060E080E080
:104C70000E946F25E1EEF0E080818E7F8083E2EE7E
:104C8000F0E0808181608083808188608083F8018A
:104C900080818E7F8083888180618883DF91CF913E
:104CA0001F910F910895E8EDF0E080818F7E808361
:104CB000E7EDF0E080818160808384E082BF81E065
:104CC000809352030C941026E8EDF0E080818E7FF3
:104CD00080831092E20008951092DA001092E100B1
:104CE00008951F920F920FB60F9211242F933F93A6
:104CF0004F935F936F937F938F939F93AF93BF93E4
:104D0000EF93FF938091E10082FF0BC08091E2005E
:104D100082FF07C08091E1008B7F8093E1000E94B9
:104D20008A228091DA0080FF1FC08091D80080FF26
:104D30001BC08091DA008E7F8093DA008091D900C9
:104D400080FF0DC080E189BD82E189BD09B400FE0C
:104D5000FDCF81E0809353030E94632205C019BCFC
:104D6000109253030E9475228091E10080FF19C0C8
:104D70008091E20080FF15C08091E2008E7F8093D9
:104D8000E2008091E20080618093E2008091D8008F
:104D900080628093D80019BC85E0809353030E9401
:104DA00080228091E10084FF30C08091E20084FF86
:104DB0002CC080E189BD82E189BD09B400FEFDCF30
:104DC0008091D8008F7D8093D8008091E1008F7E04
:104DD0008093E1008091E2008F7E8093E2008091D9
:104DE000E20081608093E20080914F03882311F0FC
:104DF00084E007C08091E30087FD02C081E001C02C
:104E000083E0809353030E9484228091E10083FF1A
:104E100029C08091E20083FF25C08091E100877F57
:104E20008093E10082E08093530310924F038091BE
:104E3000E1008E7F8093E1008091E2008E7F80937D
:104E4000E2008091E20080618093E20042E060E055
:104E500080E00E946F258091F00088608093F000D0
:104E60000E947C22FF91EF91BF91AF919F918F9112
:104E70007F916F915F914F913F912F910F900FBE56
:104E80000F901F9018951F920F920FB60F9211243A
:104E90002F933F934F935F936F937F938F939F9342
:104EA000AF93BF93CF93DF93EF93FF93C091E9004C
:104EB000CF708091EC00D82FD17080FDD0E8109297
:104EC000E9008091F000877F8093F00078940E9441
:104ED00087271092E9008091F00088608093F000AD
:104EE000CD2BCF70C093E900FF91EF91DF91CF916F
:104EF000BF91AF919F918F917F916F915F914F91F2
:104F00003F912F910F900FBE0F901F9018951F93F8
:104F1000CF93DF93CDB7DEB7AA970FB6F894DEBF75
:104F20000FBECDBFE4E5F3E08091F100819323E073
:104F3000EC35F207C9F70E94DA228091E80083FF7E
:104F40002EC18091540390915503492F50E04A306F
:104F5000510508F024C1FA01E357FF4F0C940E29C4
:104F6000803821F0823809F01AC108C080915003BE
:104F700090915103992389F082600FC0809158036A
:104F80008F70873008F00BC18093E9008091EB00AF
:104F900085FB882780F91092E9009091E800977FBF
:104FA0009093E8008093F1001092F100D1C0282F77
:104FB0002D7F09F0F4C0882319F0823061F0EFC032
:104FC00080915603813009F0EAC0933009F080E007
:104FD000809351032EC08091560381112AC0809185
:104FE00058038F702FEF280F263008F0D8C0809319
:104FF000E9002091EB0020FF1CC0933021F4809148
:10500000EB00806214C09091EB0090619093EB00F4
:1050100021E030E0A90102C0440F551F8A95E2F754
:105020004093EA001092EA008091EB008860809340
:10503000EB001092E9008091E800877F8093E80000
:105040000E94A425ACC08111AAC0109156031F77FD
:105050008091E3008078812B8093E3008091E800C9
:10506000877F8093E8000E94A4258091E80080FF5C
:10507000FCCF8091E30080688093E300111102C0AF
:1050800082E001C083E08093530389C0805882305E
:1050900008F085C080915603909157038C3D53E0F2
:1050A000950779F583E08A838AE289834FB7F8947C
:1050B000DE01139620E03EE051E2E32FF0E0509352
:1050C0005700E49120FF03C0E295EF703F5FEF705F
:1050D0008E2F90E0EA3010F0C79601C0C0968D93F5
:1050E0009D932F5F243149F74FBF8091E800877F60
:1050F0008093E8006AE270E0CE0101960E94B0243D
:1051000016C06091580370915903AE014F5F5F4F15
:105110000E94E223BC01892B09F441C09091E80070
:10512000977F9093E80089819A810E940E25809153
:10513000E8008B778093E80032C0803881F5809159
:10514000E800877F8093E80080914F038093F1000F
:105150008091E8008E7772CF811121C08091560333
:105160009091570399270297D4F48091E800877FA4
:105170008093E8008091560380934F030E94A425FA
:1051800080914F03811106C08091E30087FD02C02A
:1051900081E001C084E0809353030E94CB22809180
:1051A000E80083FF0AC08091E800877F8093E800D1
:1051B0008091EB0080628093EB00AA960FB6F89482
:1051C000DEBF0FBECDBFDF91CF911F910895CF936A
:1051D000809153038823A1F0C091E900CF70909192
:1051E000EC00892F817090FD80E8C82B1092E900B7
:1051F0008091E80083FD0E948727CF70C093E9006B
:10520000CF910895991B79E004C0991F961708F073
:10521000961B881F7A95C9F780950895EE0FFF1F9A
:105220000590F491E02D0994F999FECF92BD81BDCE
:10523000F89A992780B50895A6E1B0E044E050E0DF
:105240000C944E29A8E1B0E042E050E00C944E29C5
:10525000262FF999FECF92BD81BDF89A019700B42F
:10526000021639F01FBA20BD0FB6F894FA9AF99ACF
:105270000FBE08950396272F0E9429290E942829EE
:10528000252F0E942929242F0C9429290196272FA4
:105290000E9429290C942829DC01CB01FC01F999F1
:1052A000FECF06C0F2BDE1BDF89A319600B40D9272
:0C52B00041505040B8F70895F894FFCF2B
:1052BC00200001F5026C211C226F2118220622010C
:1052CC00000D010D020D030D040D050D000C010C5C
:1052DC00020C030C040C050C000B010B020B030B52
:1052EC00040B050B000A010A020A030A040A050A48
:1052FC00000901090209030904090509000801084C
:10530C000208030804080508000701070207030741
:10531C000407050700060106020603060406050637
:10532C00000501050205030504050505000401043B
:10533C000204030404040504000301030203030331
:10534C000403050300020102020203020402050227
:10535C00000101010201030104010501000001002B
:10536C000200030004000500E200E900EA00B500B9
:10537C00B600B700CD008301CC008A0192019401E4
:10538C002102230224022502260227022A02B3004C
:10539C00B4006F007000818283E200E900EA00B57E
:1053AC0000B600B700CD008301CC008A01920194B5
:1053BC00012102230224022502260227022A02B31B
:1053CC0000B4006F007000818283406D221409A725
:0A53DC000885082A0843085C080051
:00000001FF
